:100000000C942A000C943C000C943C000C943C0092
:100010000C943C000C943C000C943C000C943C0070
:100020000C943C000C943C000C943C000C943C0060
:100030000C943C000C943C000C943C000C943C0050
:100040000C94DE000C943C000C943C000C943C009E
:100050000C943C0011241FBECFE5D8E0DEBFCDBF1D
:1000600020E0A0E6B0E001C01D92A437B207E1F79E
:100070000E940D050C94BC070C94000087B18F738F
:1000800087B93E9A3D9A86B1887F86B986B18760E6
:1000900086B9379A0895982FFB0180916F008111DE
:1000A00029C021E020936F00309731F1913228F57B
:1000B00027B1207E27B927B1922B97B9369A20E035
:1000C00030E0349908C020329EE4390709F40895DD
:1000D0002F5F3F4FF6CF20323E4479F0349A85B1FE
:1000E00024E0829FC00111249183808310926F00CD
:1000F00081E0089583E0089582E00895982F9B01A0
:1001000080916F0081111BC021153105D1F041157F
:100110005105B9F081E080936600509371004093DF
:100120007000309373002093720087B1807E87B98E
:1001300087B1892B87B9369A339A81E0089583E095
:10014000089582E00895FC01892BA1F180916F0050
:10015000811132C081E080936F0082E0809366005D
:10016000818180936C008281938190936900809358
:1001700068008481958190936B0080936A008681EA
:10018000978190936E0080936D001092670087B105
:10019000807E87B987B190916700E0916800F09107
:1001A0006900E90FF11D9081892B87B9369A339A3E
:1001B00081E0089582E0089583E008951F920F92F0
:1001C0000FB60F9211242F933F934F935F936F932A
:1001D0007F938F939F93AF93BF93EF93FF93809100
:1001E0006600823009F045C025B180916700482F34
:1001F00050E0440F551FE0916A00F0916B00E40F4E
:10020000F51F94E0299F90011124318320838F5F93
:100210008093670090916C00891309C010926F0061
:10022000E0916D00F0916E000995339811C087B18F
:10023000807E87B987B190916700E0916800F09166
:100240006900E90FF11D9081892B87B9369A339A9D
:10025000FF91EF91BF91AF919F918F917F916F919E
:100260005F914F913F912F910F900FBE0F901F9074
:100270001895813069F785B1E0917200F0917300B3
:1002800024E0829FC00111249183808310926F002B
:10029000E0917000F0917100C7CF411134C08230FD
:1002A000E1F068F481110EC081E090E001C0880F98
:1002B0006A95EAF780959AB389238ABB08958330BB
:1002C000B9F0089581E090E001C0880F6A95EAF7DF
:1002D000809597B3892387BB089581E090E001C0A2
:1002E000880F6A95EAF7809594B3892384BB0895B3
:1002F00081E090E001C0880F6A95EAF7809591B39C
:10030000892381BB08954130E9F78230C1F058F468
:1003100081110CC021E030E001C0220F6A95EAF79C
:100320008AB3822BCACF833099F0089521E030E060
:1003300001C0220F6A95EAF787B3822BCCCF21E068
:1003400030E001C0220F6A95EAF784B3822BCECF4A
:1003500021E030E001C0220F6A95EAF781B3822BD9
:10036000D0CF413081F58230D1F060F481110DC0E1
:1003700021E030E001C0220F6A95EAF78BB3822BAF
:100380008BBB08958330A9F0089521E030E001C0CF
:10039000220F6A95EAF788B3822B88BB089521E083
:1003A00030E001C0220F6A95EAF785B3822B85BB46
:1003B000089521E030E001C0220F6A95EAF782B388
:1003C000822B82BB08954111FDCF8230D1F060F4C1
:1003D00081110DC081E090E001C0880F6A95EAF7B5
:1003E00080959BB38923CCCF8330A9F0089581E019
:1003F00090E001C0880F6A95EAF7809598B3892349
:10040000CCCF81E090E001C0880F6A95EAF7809533
:1004100095B38923CCCF81E090E001C0880F6A9525
:10042000EAF7809592B38923CCCFFA01823091F01C
:1004300060F481110DC089B390E002C09595879555
:100440006A95E2F7817080830895833029F00895DA
:1004500086B3F2CF83B3F0CF80B3EECF611110C07B
:10046000823051F020F4811105C01ABA089583300A
:1004700029F0089517BA089514BA089511BA089585
:10048000613099F4823061F028F4811106C08FEF59
:100490008ABB0895833039F008958FEF87BB0895A4
:1004A0008FEF84BB08958FEF81BB0895823051F0A8
:1004B00020F4811105C06ABB0895833029F00895A6
:1004C00067BB089564BB089561BB0895823051F005
:1004D00020F4811105C06BBB0895833029F0089585
:1004E00068BB089565BB089562BB0895FB01823027
:1004F00059F028F4811106C089B3808308958330B0
:1005000029F0089586B3F9CF83B3F7CF80B3F5CF41
:100510008FB780688FBF08958FB78F778FBF08958B
:10052000CF93C82F41E062E080E00E94B10140E03B
:1005300061E080E00E94B1016C2F82E00E946602BF
:1005400041E060E080E00E94B1018FE697E1019711
:10055000F1F700C0000040E060E080E0CF910C9433
:10056000B101CF93C82F40E062E080E00E94B1016A
:1005700040E061E080E00E94B1016C2F82E00E94C7
:10058000660241E060E080E00E94B1018FE697E101
:100590000197F1F700C0000040E060E080E0CF91FB
:1005A0000C94B10161E082E00E942E0241E062E021
:1005B00080E00E944D0141E061E080E00E944D0139
:1005C00041E060E080E00E944D012FEF89EF90E074
:1005D000215080409040E1F700C000008CE30E9471
:1005E000B1028CE00E94B10281E00C94B102CF9381
:1005F000DF93EC018991811103C0DF91CF910895C0
:100600000E949002F7CF813009F4605C80E8860F89
:100610000C94B10281E00C94B1020F931F93CF931D
:10062000DF938C01862F880F880F880F805C0E94D3
:10063000B102E801085F1F4F89910E949002C01724
:10064000D107D1F780E8DF91CF911F910F910C94E2
:10065000B102CF93C82F862F642F0E9403038C2FE3
:10066000CF910C9490024F925F926F927F928F92F3
:100670009F92AF92BF92CF92DF92EF92FF920F9331
:100680001F93CF93DF9329013A014B01D82FC92F34
:10069000A0E00E94900541F1EAE0AE2EB12CC12C01
:1006A000D12CE12CF12C00E010E00E9433050E94D7
:1006B00033039201A301B4018D2F9C2F0E943105B9
:1006C00080E3820FDF91CF911F910F91FF90EF9008
:1006D000DF90CF90BF90AF909F908F907F906F9062
:1006E0005F904F900C949002DF91CF911F910F91EA
:1006F000FF90EF90DF90CF90BF90AF909F908F9042
:100700007F906F905F904F9008950F931F93CF93BA
:10071000DF9300D000D000D0CDB7DEB76D837E83ED
:10072000182F092F8D8189838E818A831B830C83E7
:1007300069817A818B819C810E9413060E948706C1
:100740009B01AC0169817A818B819C810E949C050F
:1007500020E030E040E251E469837A838B839C831C
:1007600069817A818B819C810E944F076D837E8392
:10077000182F092F69837A838B839C8369817A81FF
:100780008B819C810E941306E22FA0E00E949005BD
:1007900029F080E38E0F0E949002C4CF0F900F903B
:1007A0000F900F900F900F90DF91CF911F910F91AD
:1007B0000895CF92DF92EF92FF920F931F93CF9302
:1007C000DF93CDB7DEB729970FB6F894DEBF0FBE23
:1007D000CDBF462F572FBC0149835A836B837C833F
:1007E00020E030E0A90169817A818B819C810E949F
:1007F0000906811103C080E30E94900220E030E0EE
:10080000A90169817A818B819C810E94090687FFF9
:100810004CC08DE20E94900289819A81AB81BC819B
:10082000B05889839A83AB83BC83BC01CD010E94FD
:10083000130669017A018B0189879D83A0E00E94DC
:10084000900519F480E30E9490029601A701B80177
:1008500089859D810E9433039601A701B80189858E
:100860009D810E9487069B01AC0169817A818B8101
:100870009C810E944A0718160CF052C08EE20E941A
:10088000900269817A818B819C8129960FB6F894B8
:10089000DEBF0FBECDBFDF91CF911F910F91FF90B3
:1008A000EF90DF90CF900C94850320E030E0A90119
:1008B00069817A818B819C810E944A07181684F590
:1008C00069817A818B819C810E94130669017A017A
:1008D0008B0189879D83A0E00E94900519F480E335
:1008E0000E9490029601A701B80189859D810E940E
:1008F00033039601A701B80189859D810E9487066F
:1009000029813A814B815C816D837E838F839887B7
:100910006D817E818F8198850E94090687FDAECF0B
:1009200029960FB6F894DEBF0FBECDBFDF91CF91F1
:100930001F910F91FF90EF90DF90CF900895CF938C
:10094000DF9300D000D0CDB7DEB789839A8341E032
:1009500067E080E00E94B1010E940A03A981BA8188
:10096000CD01A0E0B0E089839A83AB83BC83BC0156
:10097000CD010E944A0620E030E04AEF5EE3698341
:100980007A838B839C8369817A818B819C810E948D
:100990004F0769837A838B839C8369817A818B81FA
:1009A0009C810E94D903BFE72AE186E0B150204034
:1009B0008040E1F700C0000040E067E080E00E9476
:1009C000B1019FE7AAE1B6E09150A040B040E1F745
:1009D00000C000000E940A0360E070E48CE196E42D
:1009E0000E94D9032FE78AE196E021508040904091
:1009F000E1F700C000000E940A03AFE7BAE126E079
:100A0000A150B0402040E1F700C000000F900F90CF
:100A10000F900F90DF91CF91089500D0CDB7DEB742
:100A20000E9488020E94D2020E943E0040E060E0E4
:100A300080E00E944D0141E067E080E00E944D01AE
:100A400061E083E00E942E0261E081E00E942E02BC
:100A50004FE954E0BE016F5F7F4F80E00E947E004F
:100A6000F7CF689401C0E8948F929F92CF93DF9361
:100A70000E943F05DF91CF919F908F900895882429
:100A80009924F401E401B0E49F93AA279A158B04FA
:100A90009C04ED05FE05CF05D007A10798F4AD2F06
:100AA000DC2FCF2FFE2FE92D982C892E982F872F02
:100AB000762F652F542F432F322F2227B85031F72E
:100AC000BF9127C01B2EBF91BB27220F331F441F8E
:100AD000551F661F771F881F991F881C991CEE1FC2
:100AE000FF1FCC1FDD1FAA1FBB1F8A149B04EC0530
:100AF000FD05CE05DF05A007B10748F08A189B0861
:100B0000EC09FD09CE09DF09A00BB10B21601A9495
:100B1000E1F62EF49401AF01BE01CD01000C089561
:100B20000024A7FD00942A173005400550056005F4
:100B300070058005900508955058BB27AA270E948C
:100B4000B4050C9410070E94020738F00E940907B0
:100B500020F039F49F3F19F426F40C94EF060EF4BC
:100B6000E095E7FB0C94E906E92F0E94210758F372
:100B7000BA17620773078407950720F079F4A6F582
:100B80000C9443070EF4E0950B2EBA2FA02D0B0109
:100B9000B90190010C01CA01A0011124FF27591BC2
:100BA00099F0593F50F4503E68F11A16F040A22FC8
:100BB000232F342F4427585FF3CF46953795279539
:100BC000A795F0405395C9F77EF41F16BA0B620B38
:100BD000730B840BBAF09150A1F0FF0FBB1F661F7F
:100BE000771F881FC2F70EC0BA0F621F731F841FC2
:100BF00048F4879577956795B795F7959E3F08F0E8
:100C0000B0CF9395880F08F09927EE0F97958795A9
:100C100008950E94C50608F481E00895BEE304D05B
:100C200008F490E80895BFE322273327A9010E9422
:100C3000290760F19F5748F1B91740F1BFE3B91B8D
:100C40009927B8503AF4660F771F881F991FB395FC
:100C5000D2F316C0B8504AF0232F342F452F562F09
:100C6000672F782F8827B850BAF7B85F49F0869574
:100C7000779567955795479537952795BA95B9F71D
:100C800016F40E94F20688940895889460E070E05B
:100C9000CB010895E89409C097FB3EF490958095A8
:100CA000709561957F4F8F4F9F4F9923A9F0F92F32
:100CB00096E9BB279395F695879577956795B795B0
:100CC000F111F8CFFAF4BB0F11F460FF1BC06F5F96
:100CD0007F4F8F4F9F4F16C0882311F096E911C0A8
:100CE000772321F09EE8872F762F05C0662371F0C9
:100CF00096E8862F70E060E02AF09A95660F771FDD
:100D0000881FDAF7880F9695879597F90895E894E4
:100D1000F92F96EBFF2381F0121613061406440BED
:100D20009395F69587957795679557954040FF235E
:100D3000B9F71BC099270895882351F49850D2F72A
:100D4000872B762F652F542F432F322F20E0B1F3BE
:100D5000121613061406440B88233AF09A95440F92
:100D6000551F661F771F881FCAF755234AF4440F83
:100D7000551F11F460FF04C06F5F7F4F8F4F9F4F6F
:100D8000880F9695879597F90895990F0008550F44
:100D9000AA0BE0E8FEEF16161706E807F907C0F001
:100DA00012161306E407F50798F0621B730B840B09
:100DB000950B39F40A2661F0232B242B252B21F4E3
:100DC00008950A2609F4A140A6958FEF811D811D83
:100DD000089597F99F6780E870E060E008959FEFBD
:100DE00080EC08959095809570956095509540950C
:100DF000309521953F4F4F4F5F4F6F4F7F4F8F4F34
:100E00009F4F089500240A9416161706180609061F
:100E1000089500240A941216130614060506089570
:100E2000092E0394000C11F4882352F0BB0F40F4F8
:100E3000BF2B11F460FF04C06F5F7F4F8F4F9F4F38
:100E4000089557FD9058440F551F59F05F3F71F0BA
:100E50004795880F97FB991F61F09F3F79F0879521
:100E60000895121613061406551FF2CF4695F1DFAA
:100E700008C0161617061806991FF1CF869571053A
:100E8000610508940895E894BB2766277727CB016E
:100E900097F908950E94C50608F48FEF08950E94FF
:100EA00062070C9410070E94020738F00E9409079D
:100EB00020F0952311F00C94E9060C94EF06112410
:100EC0000C9444070E94210770F3959FC1F3950F7E
:100ED00050E0551F629FF001729FBB27F00DB11DBE
:100EE000639FAA27F00DB11DAA1F649F6627B00D4E
:100EF000A11D661F829F2227B00DA11D621F739F37
:100F0000B00DA11D621F839FA00D611D221F749F44
:100F10003327A00D611D231F849F600D211D822F8B
:100F2000762F6A2F11249F5750409AF0F1F08823B2
:100F30004AF0EE0FFF1FBB1F661F771F881F9150DF
:100F40005040A9F79E3F510580F00C94E9060C949F
:100F500044075F3FE4F3983ED4F386957795679511
:100F6000B795F795E7959F5FC1F7FE2B880F911D09
:0C0F70009695879597F90895F894FFCFA7
:00000001FF
