:100000000C942A000C943F000C943F000C943F0089
:100010000C943F000C943F000C943F000C943F0064
:100020000C943F000C943F000C943F000C943F0054
:100030000C943F000C943F000C943F000C943F0044
:100040000C943F000C943F000C943F000C943F0034
:100050000C943F0011241FBECFE5D8E0DEBFCDBF1A
:1000600010E0A0E6B0E0ECEFF1E102C005900D92E7
:10007000AA38B107D9F70E9481030C94FC080C94AC
:100080000000411130C0813081F028F08230B9F099
:100090008330F9F0089581E090E001C0880F6A95FF
:1000A000EAF780959AB3892330C081E090E001C0DF
:1000B000880F6A95EAF7809597B3892330C081E06D
:1000C00090E001C0880F6A95EAF7809594B3892380
:1000D00030C081E090E001C0880F6A95EAF7809512
:1000E00091B3892330C0413079F5813081F028F017
:1000F0008230B9F08330F9F0089581E090E001C0DA
:10010000880F6A95EAF79AB3892B8ABB089581E034
:1001100090E001C0880F6A95EAF797B3892B87BBF7
:10012000089581E090E001C0880F6A95EAF794B3E2
:10013000892B84BB089581E090E001C0880F6A9507
:10014000EAF791B3892B81BB0895413061F5813085
:1001500079F028F08230A9F08330E1F0089581E051
:1001600090E001C0880F6A95EAF79BB3892B2EC0F7
:1001700081E090E001C0880F6A95EAF798B3892B77
:1001800030C081E090E001C0880F6A95EAF795B32E
:10019000892B32C081E090E001C0880F6A95EAF7B0
:1001A00092B3892B34C0411133C0813089F028F0DB
:1001B0008230C9F0833011F1089581E090E001C0F0
:1001C000880F6A95EAF780959BB389238BBB0895C6
:1001D00081E090E001C0880F6A95EAF7809598B3B6
:1001E000892388BB089581E090E001C0880F6A955B
:1001F000EAF7809595B3892385BB089581E090E067
:1002000001C0880F6A95EAF7809592B3892382BB73
:100210000895FA01813041F028F0823039F08330BE
:1002200039F0089589B305C086B303C083B301C014
:1002300080B390E002C0959587956A95E2F781704A
:1002400080830895611110C0813041F028F0823020
:1002500039F0833039F008951ABA089517BA08951D
:1002600014BA089511BA0895613099F4813049F0B3
:1002700028F0823049F0833051F008958FEF8ABB27
:1002800008958FEF87BB08958FEF84BB08958FEF9C
:1002900081BB0895813041F028F0823039F08330FD
:1002A00039F008956ABB089567BB089564BB08954B
:1002B00061BB0895813041F028F0823039F08330FD
:1002C00039F008956BBB089568BB089565BB089528
:1002D00062BB0895FB01813041F028F0823039F093
:1002E000833039F0089589B305C086B303C083B362
:1002F00001C080B3808308958F929F92AF92BF9286
:10030000CF92DF92EF92FF920F931F93CF93DF93E1
:100310001F92CDB7DEB724E6C22E20E0D22EE12C0C
:10032000F12C460140E0F601608181E00E94A500C9
:1003300090E6A92E90E0B92E00E010E0F501619161
:100340005F01AE014F5F5F4F81E00E94090189812B
:1003500081111AC0F801EE0FFF1FEE0FFF1FE859C1
:10036000FF4FEE0DFF1DF080005A1F4F8981811154
:1003700009C0AE014F5F5F4FF801608181E00E94CC
:100380000901F4CF8F2D17C00F5F1F4F04301105E7
:10039000A9F6FFEFCF1ADF0A41E0F401608181E0A6
:1003A0000E94A500FFEFEF1AFF0A84E0E816F104AF
:1003B00009F0B7CF85E60F90DF91CF911F910F9194
:1003C000FF90EF90DF90CF90BF90AF909F908F9075
:1003D0000895CF93C82F41E062E080E00E94A5001D
:1003E00040E061E080E00E94A5006C2F82E00E9466
:1003F0005A0141E060E080E00E94A5008FE697E1AD
:100400000197F1F700C0000040E060E080E0CF918C
:100410000C94A500CF93C82F40E062E080E00E94DA
:10042000A50040E061E080E00E94A5006C2F82E022
:100430000E945A0141E060E080E00E94A5008FE642
:1004400097E10197F1F700C0000040E060E080E034
:10045000CF910C94A50061E082E00E94220141E06E
:1004600062E080E00E94410041E061E080E00E94A3
:10047000410041E060E080E00E9441002FEF89EF01
:1004800090E0215080409040E1F700C000008CE3F4
:100490000E940A028CE00E940A0281E00C940A0287
:1004A000CF93DF93EC018991882319F00E94E90131
:1004B000FACFDF91CF910895813009F4605C80E834
:1004C000860F0C940A0281E00C940A020F931F938A
:1004D000CF93DF938C01862F880F880F880F805C65
:1004E0000E940A02E801085F1F4F89910E94E901FA
:1004F000C017D107D1F780E8DF91CF911F910F91FD
:100500000C940A02CF93C82F862F642F0E945C029E
:100510008C2FCF910C94E9014F925F926F927F9252
:100520008F929F92AF92BF92CF92DF92EF92FF9203
:100530000F931F93CF93DF9329013A014B01D82FDB
:10054000C92FA0E00E945E0641F1EAE0AE2EB12C78
:10055000C12CD12CE12CF12C00E010E00E9401060E
:100560000E948C029201A301B4018D2F9C2F0E9446
:10057000FF0580E3820FDF91CF911F910F91FF90D4
:10058000EF90DF90CF90BF90AF909F908F907F9033
:100590006F905F904F900C94E901DF91CF911F9184
:1005A0000F91FF90EF90DF90CF90BF90AF909F9012
:1005B0008F907F906F905F904F900895CF92DF92D1
:1005C000EF92FF926B017C01C701B6010E945307B5
:1005D0000E94C7079B01AC01C701B6010E946A06D1
:1005E00020E030E040E251E40E948F086B017C0182
:1005F0000E945307E22FA0E00E945E0629F080E3EC
:100600008E0F0E94E901E0CFFF90EF90DF90CF9036
:1006100008958F929F92AF92BF92CF92DF92EF9206
:10062000FF920F931F93CF93DF936B017C0120E028
:1006300030E0A9010E94D706811103C080E30E9427
:10064000E90120E030E0A901C701B6010E94D70608
:1006500087FF08C08DE20E94E901F7FAF094F7F8ED
:10066000F09409C020E030E0A901C701B6010E9462
:100670008A081816CCF5C701B6010E945307490134
:100680005A018B01D82FC92FA0E00E945E0619F4F1
:1006900080E30E94E9019401A501B8018D2F9C2FF0
:1006A0000E948C029401A501B8018D2F9C2F0E94FD
:1006B000C7079B01AC01C701B6010E948A08181642
:1006C0009CF48EE20E94E901C701B601DF91CF914F
:1006D0001F910F91FF90EF90DF90CF90BF90AF9060
:1006E0009F908F900C94DE02DF91CF911F910F911C
:1006F000FF90EF90DF90CF90BF90AF909F908F9042
:100700000895CF93DF93CDB7DEB7CA53D1400FB66C
:10071000F894DEBF0FBECDBF0E942B026FE081E0D8
:100720000E944A016FEF81E00E945A01AE014753D7
:100730005F4FC25DDE4F59834883CE52D140CE0118
:1007400084509F4FC05DDE4F99838883C053D14052
:10075000DE0111961D01C25DDE4FE881F981CE52A6
:10076000D14023E311922A95E9F782E3C05DDE4F81
:10077000A881B981C053D1401D928A95E9F788ECD0
:10078000F10111928A95E9F700E00E947C01182F8F
:10079000853611F180ED810F011102C08A30D0F44D
:1007A000802E912C8A3058F0E9ECF0E0EC0FFD1F20
:1007B000E80DF91D3197808180538A3058F4812FDC
:1007C0000E94E901E9ECF0E0EC0FFD1FE80DF91DD6
:1007D00010830F5F1D3311F00530B8F20E946302E1
:1007E0001D3321F088E790E00E945002FFEB2FE1DB
:1007F0004BE1F15020404040E1F700C000000E9472
:1008000063021D3309F0A7CFE9ECF0E0EC0FFD1F08
:10081000E00FF11D1082CE0187539F4F0E945002BE
:100820005FE78FE396E3515080409040E1F700C0CE
:1008300000000E946302C753DF4F8881C95CD0402B
:1008400080538A3088F088E790E00E945002AFEB36
:10085000BFE1EBE1A150B040E040E1F700C0000093
:100860000E94630280E001C081E011E099EC892ED2
:10087000912C8C0E9D1E810E911CD4019C9199236C
:1008800061F1882309F467CF0E946302C753DF4FE9
:100890008881C95CD04080538A3058F4F401319784
:1008A000808180538A30B0F0D4018C9180538A309B
:1008B00088F088E790E00E945002BFEBEFE1FBE197
:1008C000B150E040F040E1F700C000000E94630238
:1008D00080E001C081E01F5FC9CF882309F43BCFCE
:1008E000812C912C60E070E0CB01E9ECF0E0EC0FA2
:1008F000FD1FE80DF11D10811123E9F020ED210FFE
:100900002A3008F063C120E030E040E251E40E9468
:100910008F082B013C01612F70E060537109072E95
:10092000000C880B990B0E948C07A30192010E9476
:100930006B068394DACF912C892D90E07CEF472EC3
:10094000512C4C0E5D1E480E591ED2012C912223B3
:1009500009F4EFC02A3231F02F3211F1253209F0BB
:10096000E6C04FC03C01BFEF6B1A7B0A660C771CD8
:10097000660C771C620C731C8C01000F111F000F9A
:10098000111FF101E00FF11FD3012D913D914D9108
:100990005C9160817181828193810E948F081DC06A
:1009A0003C014FEF641A740A660C771C660C771CC6
:1009B000620C731C8C01000F111F000F111FF1013D
:1009C000E00FF11FD3012D913D914D915C9160811C
:1009D0007181828193810E94DC06F30160837183BF
:1009E00082839383992031F0F20131978081D20183
:1009F0008C9303C02BE2F2012083F101E00FF11F81
:100A000092C09C012F5F3F4F220F331F220F331FD5
:100A1000A101420F531FCE5CDE4F59834883C2535E
:100A2000D1403C01660C771C660C771CF101E60D89
:100A3000F71D60817181828193810E945307CC5C94
:100A4000DE4F2883C453D140CB5CDE4F3883C5537F
:100A5000D140CA5CDE4F4883C653D140C95CDE4FEB
:100A60005883C753D140C85CDE4F6883C853D14018
:100A7000872EC75CDE4F8883C953D140C65CDE4FEA
:100A80009883CA53D140CE5CDE4FA881B981C2534E
:100A9000D1406D917D918D919C910E945307590198
:100AA0006A017B018C01CC5CDE4F2881C453D140AC
:100AB000CB5CDE4F3881C553D140CA5CDE4F4881E4
:100AC000C653D140C95CDE4F5881C753D140C85C82
:100AD000DE4F6881C853D140782DC75CDE4F8881D6
:100AE000C953D140C65CDE4F9881CA53D1400E94A1
:100AF000FF050E94C707CE5CDE4FE881F981C25333
:100B0000D1406083718382839383992031F0F20115
:100B100031978081D2018C9303C02BE2F2012083B4
:100B2000F101E60DF71D1082118212821382939457
:100B300003CF49805A806B807C8011E0812F90E048
:100B4000ECEFF0E0EC0FFD1FE80FF91F319720816B
:100B5000222309F400CE2D32A1F02D3321F12B32C6
:100B600099F5880F991F880F991FF101E80FF91F58
:100B70002081318142815381C301B2010E946B0601
:100B80000FC0880F991F880F991FF101E80FF91FF7
:100B90002081318142815381C301B2010E946A06E2
:100BA0002B013C0111C00E946302C301B2010E94EB
:100BB0000903BFE3EFE5F1E5B150E040F040E1F7B4
:100BC00000C000000E9463021F5FB8CF292D30E0F3
:100BD000ECEFF0E0EC0FFD1FE20FF31F1083939496
:100BE000220F331F220F331FF101E20FF31F608327
:100BF00071838283938360E070E0CB019ACE689426
:100C000001C0E8948F929F92CF93DF930E940D06CC
:100C1000DF91CF919F908F90089588249924F401BB
:100C2000E401B0E49F93AA279A158B049C04ED0578
:100C3000FE05CF05D007A10798F4AD2FDC2FCF2FED
:100C4000FE2FE92D982C892E982F872F762F652F30
:100C5000542F432F322F2227B85031F7BF9127C08E
:100C60001B2EBF91BB27220F331F441F551F661F2A
:100C7000771F881F991F881C991CEE1FFF1FCC1F10
:100C8000DD1FAA1FBB1F8A149B04EC05FD05CE05C2
:100C9000DF05A007B10748F08A189B08EC09FD0999
:100CA000CE09DF09A00BB10B21601A94E1F62EF4F6
:100CB0009401AF01BE01CD01000C08950024A7FDF1
:100CC00000942A1730054005500560057005800521
:100CD000900508955058BB27AA270E9482060C94BD
:100CE00050080E94420838F00E94490820F039F468
:100CF0009F3F19F426F40C942F080EF4E095E7FBBF
:100D00000C942908E92F0E94610858F3BA1762076A
:100D100073078407950720F079F4A6F50C948308EF
:100D20000EF4E0950B2EBA2FA02D0B01B901900106
:100D30000C01CA01A0011124FF27591B99F0593F4A
:100D400050F4503E68F11A16F040A22F232F342F92
:100D50004427585FF3CF469537952795A795F040E0
:100D60005395C9F77EF41F16BA0B620B730B840BF5
:100D7000BAF09150A1F0FF0FBB1F661F771F881FAD
:100D8000C2F70EC0BA0F621F731F841F48F4879505
:100D900077956795B795F7959E3F08F0B0CF9395F7
:100DA000880F08F09927EE0F9795879508950E9470
:100DB000050808F481E008950E94F0060C9450089C
:100DC0000E94490858F00E94420840F029F45F3F11
:100DD00029F00C94290851110C9484080C942F08C4
:100DE0000E94610868F39923B1F3552391F3951B91
:100DF000550BBB27AA2762177307840738F09F5F3C
:100E00005F4F220F331F441FAA1FA9F335D00E2EA8
:100E10003AF0E0E832D091505040E695001CCAF715
:100E20002BD0FE2F29D0660F771F881FBB1F2617D8
:100E300037074807AB07B0E809F0BB0B802DBF01AF
:100E4000FF2793585F4F3AF09E3F510578F00C947E
:100E500029080C9484085F3FE4F3983ED4F3869508
:100E600077956795B795F7959F5FC9F7880F911D9F
:100E70009695879597F90895E1E0660F771F881F8B
:100E8000BB1F621773078407BA0720F0621B730B3E
:100E9000840BBA0BEE1F88F7E0950895BEE304D0EB
:100EA00008F490E80895BFE322273327A9010E94A0
:100EB000690860F19F5748F1B91740F1BFE3B91BCA
:100EC0009927B8503AF4660F771F881F991FB3957A
:100ED000D2F316C0B8504AF0232F342F452F562F87
:100EE000672F782F8827B850BAF7B85F49F08695F2
:100EF000779567955795479537952795BA95B9F79B
:100F000016F40E94320888940895889460E070E096
:100F1000CB010895E89409C097FB3EF49095809525
:100F2000709561957F4F8F4F9F4F9923A9F0F92FAF
:100F300096E9BB279395F695879577956795B7952D
:100F4000F111F8CFFAF4BB0F11F460FF1BC06F5F13
:100F50007F4F8F4F9F4F16C0882311F096E911C025
:100F6000772321F09EE8872F762F05C0662371F046
:100F700096E8862F70E060E02AF09A95660F771F5A
:100F8000881FDAF7880F9695879597F90895E89462
:100F9000F92F96EBFF2381F0121613061406440B6B
:100FA0009395F69587957795679557954040FF23DC
:100FB000B9F71BC099270895882351F49850D2F7A8
:100FC000872B762F652F542F432F322F20E0B1F33C
:100FD000121613061406440B88233AF09A95440F10
:100FE000551F661F771F881FCAF755234AF4440F01
:100FF000551F11F460FF04C06F5F7F4F8F4F9F4FED
:10100000880F9695879597F90895990F0008550FC1
:10101000AA0BE0E8FEEF16161706E807F907C0F07E
:1010200012161306E407F50798F0621B730B840B86
:10103000950B39F40A2661F0232B242B252B21F460
:1010400008950A2609F4A140A6958FEF811D811D00
:10105000089597F99F6780E870E060E008959FEF3A
:1010600080EC089590958095709560955095409589
:10107000309521953F4F4F4F5F4F6F4F7F4F8F4FB1
:101080009F4F089500240A9416161706180609069D
:10109000089500240A9412161306140605060895EE
:1010A000092E0394000C11F4882352F0BB0F40F476
:1010B000BF2B11F460FF04C06F5F7F4F8F4F9F4FB6
:1010C000089557FD9058440F551F59F05F3F71F038
:1010D0004795880F97FB991F61F09F3F79F087959F
:1010E0000895121613061406551FF2CF4695F1DF28
:1010F00008C0161617061806991FF1CF86957105B8
:10110000610508940895E894BB2766277727CB01EB
:1011100097F908950E94050808F48FEF08950E943A
:10112000A2080C9450080E94420838F00E94490816
:1011300020F0952311F00C9429080C942F08112409
:101140000C9484080E94610870F3959FC1F3950F79
:1011500050E0551F629FF001729FBB27F00DB11D3B
:10116000639FAA27F00DB11DAA1F649F6627B00DCB
:10117000A11D661F829F2227B00DA11D621F739FB4
:10118000B00DA11D621F839FA00D611D221F749FC2
:101190003327A00D611D231F849F600D211D822F09
:1011A000762F6A2F11249F5750409AF0F1F0882330
:1011B0004AF0EE0FFF1FBB1F661F771F881F91505D
:1011C0005040A9F79E3F510580F00C9429080C94DB
:1011D00084085F3FE4F3983ED4F38695779567954E
:1011E000B795F795E7959F5FC1F7FE2B880F911D87
:0C11F0009695879597F90895F894FFCF25
:1011FC0004050607030201002F2A253D38392B2D43
:10120C003435363730313233496E76616C6964204F
:0A121C004571756174696F6E000082
:00000001FF
