:100000000C942A000C943C000C943C000C943C0092
:100010000C943C000C943C000C943C000C943C0070
:100020000C943C000C943C000C943C000C943C0060
:100030000C943C000C943C000C943C000C943C0050
:100040000C943C000C943C000C943C000C943C0040
:100050000C943C0011241FBECFE5D8E0DEBFCDBF1D
:1000600020E0A0E6B0E001C01D92A836B207E1F79B
:100070000E94D6010C9415030C940000411134C069
:100080008230E1F068F481110EC081E090E001C09F
:10009000880F6A95EAF780959AB389238ABB0895F9
:1000A0008330B9F0089581E090E001C0880F6A952F
:1000B000EAF7809597B3892387BB089581E090E0A4
:1000C00001C0880F6A95EAF7809594B3892384BBB1
:1000D000089581E090E001C0880F6A95EAF7809565
:1000E00091B3892381BB08954130E9F78230C1F093
:1000F00058F481110CC021E030E001C0220F6A9554
:10010000EAF78AB3822BCACF833099F0089521E0B1
:1001100030E001C0220F6A95EAF787B3822BCCCF7B
:1001200021E030E001C0220F6A95EAF784B3822B08
:10013000CECF21E030E001C0220F6A95EAF781B30B
:10014000822BD0CF413081F58230D1F060F4811123
:100150000DC021E030E001C0220F6A95EAF78BB3B1
:10016000822B8BBB08958330A9F0089521E030E005
:1001700001C0220F6A95EAF788B3822B88BB0895E5
:1001800021E030E001C0220F6A95EAF785B3822BA7
:1001900085BB089521E030E001C0220F6A95EAF79F
:1001A00082B3822B82BB08954111FDCF8230D1F002
:1001B00060F481110DC081E090E001C0880F6A9564
:1001C000EAF780959BB38923CCCF8330A9F00895BB
:1001D00081E090E001C0880F6A95EAF7809598B3B6
:1001E0008923CCCF81E090E001C0880F6A95EAF7BF
:1001F000809595B38923CCCF81E090E001C0880F32
:100200006A95EAF7809592B38923CCCFFA018230C0
:1002100091F060F481110DC089B390E002C0959512
:1002200087956A95E2F7817080830895833029F07D
:10023000089586B3F2CF83B3F0CF80B3EECF6111D0
:1002400010C0823051F020F4811105C01ABA08950F
:10025000833029F0089517BA089514BA089511BA91
:100260000895613099F4823061F028F4811106C05C
:100270008FEF8ABB0895833039F008958FEF87BBE5
:1002800008958FEF84BB08958FEF81BB089582306E
:1002900051F020F4811105C06ABB0895833029F024
:1002A000089567BB089564BB089561BB08958230CB
:1002B00051F020F4811105C06BBB0895833029F003
:1002C000089568BB089565BB089562BB0895FB015E
:1002D000823059F028F4811106C089B380830895D3
:1002E000833029F0089586B3F9CF83B3F7CF80B375
:1002F000F5CF8FB58C708FBD8EB5807E8EBD8FB5DE
:1003000082608FBD8EB580618EBD8FB580688FBDD8
:100310008FB580628FBD1DBC1CBC8BED9FE197BD6E
:1003200086BD8EE096E09BBD8ABD8EB582608EBD97
:100330000895549A539A08955F9BFECF8CB1089507
:10034000CF93DF9300D000D0CDB7DEB78AB59BB591
:100350009C0140E050E029833A834B835C83CA01CF
:10036000B9010E941A022CE53FE842E85FE3698385
:100370007A838B839C8369817A818B819C810E94A3
:10038000800269837A838B839C8369817A818B81E4
:100390009C810E94EB01462F572F5BBD4ABD0F90F9
:1003A0000F900F900F90DF91CF9108950E947901E7
:1003B0000E94990140E060E083E00E943E0041E03D
:1003C00065E083E00E943E000E949C018934E1F7D1
:1003D0000E94A001F9CF0E945F0288F09F5798F019
:1003E000B92F9927B751B0F0E1F0660F771F881F3A
:1003F000991F1AF0BA95C9F714C0B13091F00E9454
:100400007902B1E008950C947902672F782F88273C
:10041000B85F39F0B93FCCF3869577956795B3957A
:10042000D9F73EF490958095709561957F4F8F4FE9
:100430009F4F0895E89409C097FB3EF490958095EE
:10044000709561957F4F8F4F9F4F9923A9F0F92F9A
:1004500096E9BB279395F695879577956795B79518
:10046000F111F8CFFAF4BB0F11F460FF1BC06F5FFE
:100470007F4F8F4F9F4F16C0882311F096E911C010
:10048000772321F09EE8872F762F05C0662371F031
:1004900096E8862F70E060E02AF09A95660F771F45
:1004A000881FDAF7880F9695879597F9089557FD75
:1004B0009058440F551F59F05F3F71F04795880FD2
:1004C00097FB991F61F09F3F79F087950895121669
:1004D00013061406551FF2CF4695F1DF08C0161615
:1004E00017061806991FF1CF8695710561050894C6
:1004F0000895E894BB2766277727CB0197F90895DD
:100500000E9493020C9404030E94F60238F00E94A9
:10051000FD0220F0952311F00C94ED020C94F302EF
:1005200011240C947A020E94570270F3959FC1F334
:10053000950F50E0551F629FF001729FBB27F00D91
:10054000B11D639FAA27F00DB11DAA1F649F6627E6
:10055000B00DA11D661F829F2227B00DA11D621F35
:10056000739FB00DA11D621F839FA00D611D221FEF
:10057000749F3327A00D611D231F849F600D211DD3
:10058000822F762F6A2F11249F5750409AF0F1F056
:1005900088234AF0EE0FFF1FBB1F661F771F881FBF
:1005A00091505040A9F79E3F510580F00C94ED0208
:1005B0000C947A025F3FE4F3983ED4F386957795E6
:1005C0006795B795F795E7959F5FC1F7FE2B880F65
:1005D000911D9695879597F9089597F99F6780E8FB
:1005E00070E060E008959FEF80EC089500240A9485
:1005F0001616170618060906089500240A941216FE
:100600001306140605060895092E0394000C11F430
:10061000882352F0BB0F40F4BF2B11F460FF04C0DD
:0E0620006F5F7F4F8F4F9F4F0895F894FFCF6D
:00000001FF
