:100000000C942A000C943F000C943F000C943F0089
:100010000C943F000C943F000C943F000C943F0064
:100020000C943F000C943F000C943F000C943F0054
:100030000C943F000C943F000C943F000C943F0044
:100040000C943F000C943F000C943F000C943F0034
:100050000C943F0011241FBECFE5D8E0DEBFCDBF1A
:1000600010E0A0E6B0E0E2ECF1E102C005900D92F4
:10007000AE37B107D9F70E943E060C94DF080C9406
:1000800000001F93CF93DF93182FEB0140E06B89A3
:100090008A890E94670540E06D898C890E94670506
:1000A0008981883009F04BC0412F41706B818A8172
:1000B0000E94670511FB442740F96D818C810E94E5
:1000C000670512FB442740F96F818E810E94670506
:1000D00013FB442740F9698588850E94670514FB56
:1000E000442740F96B858A850E94670515FB4427E4
:1000F00040F96D858C850E94670516FB442740F901
:100100006F858E850E946705412F441F4427441F39
:10011000698988890E94670541E06F898E890E94FC
:1001200067058FE99FE00197F1F700C0000040E00C
:100130006F898E89DF91CF911F910C946705843070
:1001400009F047C0412F441F4427441F698988890B
:100150000E94670516FB442740F96F858E850E9433
:10016000670515FB442740F96D858C850E9467055E
:1001700014FB442740F96B858A850E94670541E09E
:100180006F898E890E9467058FE99FE00197F1F7DB
:1001900000C0000040E06F898E890E94670513FB54
:1001A000442740F9698988890E94670512FB442722
:1001B00040F96F858E850E94670511FB442740F941
:1001C0006D858C850E946705412F41706B858A85FE
:1001D000A1CFDF91CF911F9108951F93CF93DF930C
:1001E000182FEB0141E06B898A890E94670540E086
:1001F0006D898C890E9467058981883009F04BC020
:10020000412F41706B818A810E94670511FB442751
:1002100040F96D818C810E94670512FB442740F9EB
:100220006F818E810E94670513FB442740F9698521
:1002300088850E94670514FB442740F96B858A85F1
:100240000E94670515FB442740F96D858C850E9447
:10025000670516FB442740F96F858E850E94670568
:10026000412F441F4427441F698988890E946705DC
:1002700041E06F898E890E9467058FE99FE00197B1
:10028000F1F700C0000040E06F898E89DF91CF91C7
:100290001F910C946705843009F047C0412F441F1B
:1002A0004427441F698988890E94670516FB4427F3
:1002B00040F96F858E850E94670515FB442740F93C
:1002C0006D858C850E94670514FB442740F96B857A
:1002D0008A850E94670541E06F898E890E946705C3
:1002E0008FE99FE00197F1F700C0000040E06F89BF
:1002F0008E890E94670513FB442740F96989888924
:100300000E94670512FB442740F96F858E850E9485
:10031000670511FB442740F96D858C850E946705B0
:10032000412F41706B858A85A1CFDF91CF911F91BD
:1003300008951F93CF93DF93EC0141E06B858A858D
:100340000E94030541E06D858C850E94030541E014
:100350006F858E850E94030541E0698988890E9426
:10036000030541E06B898A890E94030541E06D899C
:100370008C890E94030541E06F898E890E940305E4
:100380008FE292EF0197F1F700C00000898110E23F
:100390008830A9F441E06B818A810E94030541E025
:1003A0006D818C810E94030541E06F818E810E94E6
:1003B000030541E0698588850E94030510E3BE01BD
:1003C00082E00E944100BE01812F8C600E944100AA
:1003D000BE018FE00E944100BE0181E0DF91CF911C
:1003E0001F910C9441000F931F93CF93DF93162F0F
:1003F000072FEC018991811105C0DF91CF911F91E9
:100400000F910895612F702F0E94ED008881803236
:1004100089F72FE788E391E0215080409040E1F791
:1004200000C00000E7CF982F862FBA01FA01208183
:10043000203239F49230A8F49111805C80580C94E9
:100440004100203561F4943060F49923B9F3913080
:10045000A1F3923011F48C5EF1CF8C5AEFCF80E093
:10046000EDCF0895BC0181E00C944100EF92FF9222
:100470000F931F93CF93DF937C018A01862F880F00
:10048000880F880FBA01805C0E944100E701C70114
:1004900008967C01B80189910E94ED00CE15DF0518
:1004A000C9F7A80160E080E0DF91CF911F910F9123
:1004B000FF90EF900C9413021F93CF93DF93182FAC
:1004C000862F642FD22FC32F422F532F0E94130247
:1004D0006D2F7C2F812FDF91CF911F910C94ED0018
:1004E0002F923F924F925F926F927F928F929F9244
:1004F000AF92BF92CF92DF92EF92FF920F931F9332
:10050000CF93DF9329013A014B01D82FC92F18014E
:10051000A0E00E94F00671F1EAE0AE2EB12CC12CF1
:10052000D12CE12CF12C00E010E00E949306810117
:100530000E94700200E010E09201A301B4018D2F2F
:100540009C2F0E949106B10180E3820FDF91CF9131
:100550001F910F91FF90EF90DF90CF90BF90AF90E1
:100560009F908F907F906F905F904F903F902F90D3
:100570000C94ED00DF91CF911F910F91FF90EF90C0
:10058000DF90CF90BF90AF909F908F907F906F90B3
:100590005F904F903F902F900895EF92FF920F93AE
:1005A0001F93CF93DF9300D000D000D0CDB7DEB73C
:1005B0006D837E83182F092F7A018D8189838E8127
:1005C0008A831B830C8369817A818B819C810E9441
:1005D00073070E94AA079B01AC0169817A818B8114
:1005E0009C810E94FC0620E030E040E251E46983F7
:1005F0007A838B839C8369817A818B819C810E9421
:1006000072086D837E83182F092F69837A838B8309
:100610009C8369817A818B819C810E947307E22F80
:10062000A0E00E94F00631F0B70180E38E0F0E9437
:10063000ED00C3CF0F900F900F900F900F900F9081
:10064000DF91CF911F910F91FF90EF9008958F92BE
:100650009F92AF92BF92CF92DF92EF92FF920F9351
:100660001F93CF93DF93CDB7DEB72A970FB6F894D9
:10067000DEBF0FBECDBF6B017C01C982DA82EB8287
:10068000FC824A87598720E030E0A901C701B60102
:100690000E946907811105C06A85798580E30E94FF
:1006A000ED0020E030E0A90169817A818B819C8195
:1006B0000E94690787FF57C06A8579858DE20E948D
:1006C000ED0089819A81AB81BC81B05889839A837E
:1006D000AB83BC83BC01CD010E94730749015A0161
:1006E0006B017C01A0E00E94F00629F46A857985FF
:1006F00080E30E94ED000A8519859401A501B601E9
:10070000C7010E9470029401A501B601C7010E94B1
:10071000AA079B01AC0169817A818B819C810E942F
:100720006D0818160CF05BC06A8579858EE20E9410
:10073000ED004A85598569817A818B819C812A9651
:100740000FB6F894DEBF0FBECDBFDF91CF911F91E2
:100750000F91FF90EF90DF90CF90BF90AF909F9060
:100760008F900C94CD0220E030E0A90169817A815C
:100770008B819C810E946D0818168CF569817A81A5
:100780008B819C810E94730749015A016B017C0196
:10079000A0E00E94F00629F46A85798580E30E9432
:1007A000ED000A8519859401A501B601C7010E94D3
:1007B00070029401A501B601C7010E94AA07298110
:1007C0003A814B815C816D837E838F8398876D81B5
:1007D0007E818F8198850E94690787FDA5CF2A9623
:1007E0000FB6F894DEBF0FBECDBFDF91CF911F9142
:1007F0000F91FF90EF90DF90CF90BF90AF909F90C0
:100800008F900895DF92EF92FF920F931F93CF93F3
:10081000DF930F92CDB7DEB78A010E9413021982CF
:1008200040E0F801638182810E94030540E0F80105
:10083000658184810E94030540E0F801678186811B
:100840000E94030540E0F801618580850E94030550
:1008500040E0F801638582850E94030540E0F801CD
:10086000658584850E94030540E0F80167858685DB
:100870000E94030540E0F801618980890E94030518
:1008800041E0F801638982890E94670541E0F8012F
:10089000658984890E94670541E0F8016789868936
:1008A0000E9467058FEC97E00197F1F700C0000008
:1008B000AE014F5F5F4FF801638182810E94CB05DB
:1008C000D980AE014F5F5F4FF801658184810E943E
:1008D000CB05E980F12CEE0CFF1CAE014F5F5F4FA2
:1008E000F801678186810E94CB058981F4E08F9FA2
:1008F000C0011124FE2CF82AFD28AE014F5F5F4F86
:10090000F801618580850E94CB058981F8E08F9F81
:10091000C0011124F82AAE014F5F5F4FF8016385D3
:1009200082850E94CB058981F0E18F9FC00111244F
:10093000F82AAE014F5F5F4FF801658584850E94FC
:10094000CB058981F0E28F9FC0011124F82AAE0106
:100950004F5F5F4FF801678586850E94CB058981CF
:10096000F0E48F9FC0011124F82AAE014F5F5F4F62
:10097000F801618980890E94CB058981F0E88F9F09
:10098000C0011124F82A40E0F801678986890E9495
:10099000670541E0F801638182810E94030541E01F
:1009A000F801658184810E94030541E0F8016781B7
:1009B00086810E94030541E0F801618580850E94DF
:1009C000030541E0F801638582850E94030541E04B
:1009D000F801658584850E94030541E0F80167857B
:1009E00086850E94030541E0F801618980890E94A3
:1009F00003058F2D0F90DF91CF911F910F91FF90E5
:100A0000EF90DF900895411134C08230E1F068F436
:100A100081110EC081E090E001C0880F6A95EAF76D
:100A200080959AB389238ABB08958330B9F00895DD
:100A300081E090E001C0880F6A95EAF7809597B34E
:100A4000892387BB089581E090E001C0880F6A95F3
:100A5000EAF7809594B3892384BB089581E090E000
:100A600001C0880F6A95EAF7809591B3892381BB0D
:100A700008954130E9F78230C1F058F481110CC07B
:100A800021E030E001C0220F6A95EAF78AB3822B99
:100A9000CACF833099F0089521E030E001C0220FE1
:100AA0006A95EAF787B3822BCCCF21E030E001C012
:100AB000220F6A95EAF784B3822BCECF21E030E093
:100AC00001C0220F6A95EAF781B3822BD0CF413063
:100AD00081F58230D1F060F481110DC021E030E069
:100AE00001C0220F6A95EAF78BB3822B8BBB089566
:100AF0008330A9F0089521E030E001C0220F6A950B
:100B0000EAF788B3822B88BB089521E030E001C06A
:100B1000220F6A95EAF785B3822B85BB089521E001
:100B200030E001C0220F6A95EAF782B3822B82BBC4
:100B300008954111FDCF8230D1F060F481110DC0D4
:100B400081E090E001C0880F6A95EAF780959BB339
:100B50008923CCCF8330A9F0089581E090E001C0D3
:100B6000880F6A95EAF7809598B38923CCCF81E006
:100B700090E001C0880F6A95EAF7809595B38923C4
:100B8000CCCF81E090E001C0880F6A95EAF78095AC
:100B900092B38923CCCFFA01823091F060F48111B5
:100BA0000DC089B390E002C0959587956A95E2F7EC
:100BB000817080830895833029F0089586B3F2CF41
:100BC00083B3F0CF80B3EECF611110C0823051F00B
:100BD00020F4811105C01ABA0895833029F00895D0
:100BE00017BA089514BA089511BA0895613099F4A6
:100BF000823061F028F4811106C08FEF8ABB08951E
:100C0000833039F008958FEF87BB08958FEF84BB51
:100C100008958FEF81BB0895823051F020F4811147
:100C200005C06ABB0895833029F0089567BB089515
:100C300064BB089561BB0895823051F020F48111A6
:100C400005C06BBB0895833029F0089568BB0895F3
:100C500065BB089562BB0895FB01823059F028F40A
:100C6000811106C089B380830895833029F00895E7
:100C700086B3F9CF83B3F7CF80B3F5CFCDB7DEB767
:100C800068970FB6F894DEBF0FBECDBF88E1E0E6EF
:100C9000F0E08E010F5F1F4FD80101900D928A95F1
:100CA000E1F7C8010E949901A80160E080E00E947C
:100CB0001302B80188E790E00E94F3012FE78FE369
:100CC00096E3215080409040E1F700C00000F12CF5
:100CD000A8016F2D80E00E940204E82EA8016F2D6C
:100CE00081E00E941302B8018E2D0E94ED00F39462
:100CF00020E1F212EDCF8FE79FE326E38150904091
:100D00002040E1F700C00000C8010E9432028FE7D6
:100D10009FE326E3815090402040E1F700C00000AF
:100D2000C3CF689401C0E8948F929F92CF93DF93D2
:100D30000E949F06DF91CF919F908F900895882405
:100D40009924F401E401B0E49F93AA279A158B0437
:100D50009C04ED05FE05CF05D007A10798F4AD2F43
:100D6000DC2FCF2FFE2FE92D982C892E982F872F3F
:100D7000762F652F542F432F322F2227B85031F76B
:100D8000BF9127C01B2EBF91BB27220F331F441FCB
:100D9000551F661F771F881F991F881C991CEE1FFF
:100DA000FF1FCC1FDD1FAA1FBB1F8A149B04EC056D
:100DB000FD05CE05DF05A007B10748F08A189B089E
:100DC000EC09FD09CE09DF09A00BB10B21601A94D3
:100DD000E1F62EF49401AF01BE01CD01000C08959F
:100DE0000024A7FD00942A17300540055005600532
:100DF00070058005900508955058BB27AA270E94CA
:100E000014070C9433080E94250838F00E942C081F
:100E100020F039F49F3F19F426F40C9412080EF4D4
:100E2000E095E7FB0C940C08E92F0E94440858F366
:100E3000BA17620773078407950720F079F4A6F5BF
:100E40000C9466080EF4E0950B2EBA2FA02D0B0122
:100E5000B90190010C01CA01A0011124FF27591BFF
:100E600099F0593F50F4503E68F11A16F040A22F05
:100E7000232F342F4427585FF3CF46953795279576
:100E8000A795F0405395C9F77EF41F16BA0B620B75
:100E9000730B840BBAF09150A1F0FF0FBB1F661FBC
:100EA000771F881FC2F70EC0BA0F621F731F841FFF
:100EB00048F4879577956795B795F7959E3F08F025
:100EC000B0CF9395880F08F09927EE0F97958795E7
:100ED00008950E94E80708F481E00895BEE304D075
:100EE00008F490E80895BFE322273327A9010E9460
:100EF0004C0860F19F5748F1B91740F1BFE3B91BA7
:100F00009927B8503AF4660F771F881F991FB39539
:100F1000D2F316C0B8504AF0232F342F452F562F46
:100F2000672F782F8827B850BAF7B85F49F08695B1
:100F3000779567955795479537952795BA95B9F75A
:100F400016F40E94150888940895889460E070E073
:100F5000CB010895E894F92F96EBFF2381F0121648
:100F600013061406440B9395F69587957795679528
:100F700057954040FF23B9F71BC099270895882350
:100F800051F49850D2F7872B762F652F542F432F8B
:100F9000322F20E0B1F3121613061406440B8823F7
:100FA0003AF09A95440F551F661F771F881FCAF79E
:100FB00055234AF4440F551F11F460FF04C06F5FBE
:100FC0007F4F8F4F9F4F880F9695879597F908957C
:100FD000990F0008550FAA0BE0E8FEEF161617064A
:100FE000E807F907C0F012161306E407F50798F0B2
:100FF000621B730B840B950B39F40A2661F0232BCB
:10100000242B252B21F408950A2609F4A140A69546
:101010008FEF811D811D089597F99F6780E870E02B
:1010200060E008959FEF80EC08959095809570950D
:10103000609550954095309521953F4F4F4F5F4FAC
:101040006F4F7F4F8F4F9F4F089500240A941616BD
:10105000170618060906089500240A9412161306A6
:10106000140605060895092E0394000C11F4882334
:1010700052F0BB0F40F4BF2B11F460FF04C06F5F50
:101080007F4F8F4F9F4F089557FD9058440F551F26
:1010900059F05F3F71F04795880F97FB991F61F0FA
:1010A0009F3F79F087950895121613061406551F71
:1010B000F2CF4695F1DF08C0161617061806991FDD
:1010C000F1CF86957105610508940895E894BB27D2
:1010D00066277727CB0197F908950E94E80708F45F
:1010E0008FEF08950E9485080C9433080E9425080C
:1010F00038F00E942C0820F0952311F00C940C0875
:101100000C94120811240C9467080E94440870F390
:10111000959FC1F3950F50E0551F629FF001729F9C
:10112000BB27F00DB11D639FAA27F00DB11DAA1FAB
:10113000649F6627B00DA11D661F829F2227B00DF8
:10114000A11D621F739FB00DA11D621F839FA00D83
:10115000611D221F749F3327A00D611D231F849FD3
:10116000600D211D822F762F6A2F11249F5750402A
:101170009AF0F1F088234AF0EE0FFF1FBB1F661FA5
:10118000771F881F91505040A9F79E3F510580F06E
:101190000C940C080C9467085F3FE4F3983ED4F37A
:1011A000869577956795B795F795E7959F5FC1F712
:1011B000FE2B880F911D9695879597F90895F894C1
:0211C000FFCF5F
:1011C20020080200020102020203020402050206D2
:0E11D200020701000101010241686D65640021
:00000001FF
