:100000000C942A000C943F000C943F000C943F0089
:100010000C943F000C943F000C943F000C943F0064
:100020000C943F000C943F000C943F000C943F0054
:100030000C943F000C943F000C943F000C943F0044
:100040000C943F000C943F000C943F000C943F0034
:100050000C943F0011241FBECFE5D8E0DEBFCDBF1A
:1000600010E0A0E6B0E0E2EFFDE002C005900D92E6
:10007000AE3EB107D9F70E94E0030C94F7060C944A
:100080000000411130C0813081F028F08230B9F099
:100090008330F9F0089581E090E001C0880F6A95FF
:1000A000EAF780959AB3892330C081E090E001C0DF
:1000B000880F6A95EAF7809597B3892330C081E06D
:1000C00090E001C0880F6A95EAF7809594B3892380
:1000D00030C081E090E001C0880F6A95EAF7809512
:1000E00091B3892330C0413079F5813081F028F017
:1000F0008230B9F08330F9F0089581E090E001C0DA
:10010000880F6A95EAF79AB3892B8ABB089581E034
:1001100090E001C0880F6A95EAF797B3892B87BBF7
:10012000089581E090E001C0880F6A95EAF794B3E2
:10013000892B84BB089581E090E001C0880F6A9507
:10014000EAF791B3892B81BB0895413061F5813085
:1001500079F028F08230A9F08330E1F0089581E051
:1001600090E001C0880F6A95EAF79BB3892B2EC0F7
:1001700081E090E001C0880F6A95EAF798B3892B77
:1001800030C081E090E001C0880F6A95EAF795B32E
:10019000892B32C081E090E001C0880F6A95EAF7B0
:1001A00092B3892B34C0411133C0813089F028F0DB
:1001B0008230C9F0833011F1089581E090E001C0F0
:1001C000880F6A95EAF780959BB389238BBB0895C6
:1001D00081E090E001C0880F6A95EAF7809598B3B6
:1001E000892388BB089581E090E001C0880F6A955B
:1001F000EAF7809595B3892385BB089581E090E067
:1002000001C0880F6A95EAF7809592B3892382BB73
:100210000895FA01813041F028F0823039F08330BE
:1002200039F0089589B305C086B303C083B301C014
:1002300080B390E002C0959587956A95E2F781704A
:1002400080830895611110C0813041F028F0823020
:1002500039F0833039F008951ABA089517BA08951D
:1002600014BA089511BA0895613099F4813049F0B3
:1002700028F0823049F0833051F008958FEF8ABB27
:1002800008958FEF87BB08958FEF84BB08958FEF9C
:1002900081BB0895813041F028F0823039F08330FD
:1002A00039F008956ABB089567BB089564BB08954B
:1002B00061BB0895813041F028F0823039F08330FD
:1002C00039F008956BBB089568BB089565BB089528
:1002D00062BB0895FB01813041F028F0823039F093
:1002E000833039F0089589B305C086B303C083B362
:1002F00001C080B3808308958F929F92AF92BF9286
:10030000CF92DF92EF92FF920F931F93CF93DF93E1
:100310001F92CDB7DEB724E6C22E20E0D22EE12C0C
:10032000F12C460140E0F601608181E00E94A500C9
:1003300090E6A92E90E0B92E00E010E0F501619161
:100340005F01AE014F5F5F4F81E00E94090189812B
:1003500081111AC0F801EE0FFF1FEE0FFF1FE859C1
:10036000FF4FEE0DFF1DF080005A1F4F8981811154
:1003700009C0AE014F5F5F4FF801608181E00E94CC
:100380000901F4CF8F2D17C00F5F1F4F04301105E7
:10039000A9F6FFEFCF1ADF0A41E0F401608181E0A6
:1003A0000E94A500FFEFEF1AFF0A84E0E816F104AF
:1003B00009F0B7CF80E30F90DF91CF911F910F919C
:1003C000FF90EF90DF90CF90BF90AF909F908F9075
:1003D00008956FE081E00E944A016FEF81E00E9482
:1003E0005A010895CF93C82F41E062E080E00E9457
:1003F000A50040E061E080E00E94A5006C2F82E053
:100400000E945A0141E060E080E00E94A5008FE672
:1004100097E10197F1F700C0000040E060E080E064
:10042000CF910C94A500CF93C82F40E062E080E00C
:100430000E94A50040E061E080E00E94A5006C2FD2
:1004400082E00E945A0141E060E080E00E94A50045
:100450008FE697E10197F1F700C0000040E060E00F
:1004600080E0CF910C94A5002FEF89EF90E0215010
:1004700080409040E1F700C000008CE30E9413022E
:100480008CE00E94130281E00E9413028FE39CE93A
:100490000197F1F700C0000061E082E00E942201B4
:1004A00041E062E080E00E94410041E061E080E0E4
:1004B0000E94410041E060E080E00C944100CF9355
:1004C000DF93EC018991882319F00E94F201FACFA1
:1004D000DF91CF910895813009F4605C80E8860F48
:1004E0000C94130281E00C9413020F931F93CF938B
:1004F000DF938C01862F880F880F880F805C0E9405
:100500001302E801085F1F4F89910E94F201C01792
:10051000D107D1F780E8DF91CF911F910F910C9413
:100520001302CF93C82F862F642F0E946B028C2F4B
:10053000CF910C94F2014F925F926F927F928F92C3
:100540009F92AF92BF92CF92DF92EF92FF920F9362
:100550001F93CF93DF9329013A014B01D82FC92F65
:10056000A0E00E94080541F1EAE0AE2EB12CC12CBA
:10057000D12CE12CF12C00E010E00E94AB040E9491
:100580009B029201A301B4018D2F9C2F0E94A9040C
:1005900080E3820FDF91CF911F910F91FF90EF9039
:1005A000DF90CF90BF90AF909F908F907F906F9093
:1005B0005F904F900C94F201DF91CF911F910F91BA
:1005C000FF90EF90DF90CF90BF90AF909F908F9073
:1005D0007F906F905F904F900895CF92DF92EF924F
:1005E000FF926B017C01C701B6010E948B050E943E
:1005F000C2059B01AC01C701B6010E94140520E0B1
:1006000030E040E251E40E948A066B017C010E94C6
:100610008B05E22FA0E00E94080529F080E38E0FF1
:100620000E94F201E0CFFF90EF90DF90CF9008950D
:100630008F929F92AF92BF92CF92DF92EF92FF92F2
:100640000F931F93CF93DF936B017C0120E030E089
:10065000A9010E948105811103C080E30E94F2017B
:1006600020E030E0A901C701B6010E94810587FFA3
:1006700008C08DE20E94F201F7FAF094F7F8F094C6
:1006800009C020E030E0A901C701B6010E9485063B
:100690001816CCF5C701B6010E948B0549015A0115
:1006A0008B01D82FC92FA0E00E94080519F480E320
:1006B0000E94F2019401A501B8018D2F9C2F0E9488
:1006C0009B029401A501B8018D2F9C2F0E94C205A9
:1006D0009B01AC01C701B6010E94850618169CF467
:1006E0008EE20E94F201C701B601DF91CF911F9106
:1006F0000F91FF90EF90DF90CF90BF90AF909F90C1
:100700008F900C94ED02DF91CF911F910F91FF908C
:10071000EF90DF90CF90BF90AF909F908F90089513
:1007200041E060E083E00E94410041E061E083E05D
:100730000E94410041E062E083E00E94410041E00C
:1007400063E083E00C94410041E060E083E00E94BC
:10075000A50041E061E083E00E94A50040E062E086
:1007600083E00E94A50040E063E083E00C94A500D4
:1007700040E060E083E00E94A50040E061E083E0AB
:100780000E94A50041E062E083E00E94A50041E0F4
:1007900063E083E00C94A50040E060E083E00E9409
:1007A000A50040E061E083E00E94A50040E062E037
:1007B00083E00E94A50040E063E083E00C94A50084
:1007C0000E9434020E94E9010E949003C0E30E944B
:1007D000720288E790E00E945F022FEF89E698E1BD
:1007E000215080409040E1F700C000000E9472025A
:1007F00086E890E00E945F022FEF89E698E12150A1
:1008000080409040E1F700C000000E94720283E93E
:1008100090E00E945F022FEF89E698E1215080402E
:100820009040E1F700C000000E9472028FE990E062
:100830000E945F022FEF89E698E1215080409040AE
:10084000E1F700C000000E9472028DEA90E00E9471
:100850005F022FEF89E698E1215080409040E1F758
:1008600000C000000E9472020E947C018033E1F30C
:100870008C3431F40E9472028CE40E94F20144C074
:10088000823531F40E94720282E50E94F2011FC09B
:10089000833591F40E9472028AEB90E00E945F021D
:1008A0000E94CC039FEB2FE18BE1915020408040D0
:1008B000E1F700C000008BCF893409F088CFCC3439
:1008C000D9F40E94720283EC90E00E945F020E94C1
:1008D000CC038FE295E70197F1F700C000000E947A
:1008E000A4039FEB2FE18BE1915020408040E1F782
:1008F00000C00000C2E56BCFC235D9F40E9472027D
:1009000080ED90E00E945F020E94CC038FE295E7A9
:100910000197F1F700C000000E94B8039FEB2FE1A0
:100920008BE1915020408040E1F700C00000CCE412
:100930004ECF8CED90E00E945F029FEB2FE18BE1A8
:10094000915020408040E1F700C000000E947202F8
:100950003ECF689401C0E8948F929F92CF93DF932B
:100960000E94B704DF91CF919F908F9008958824C3
:100970009924F401E401B0E49F93AA279A158B040B
:100980009C04ED05FE05CF05D007A10798F4AD2F17
:10099000DC2FCF2FFE2FE92D982C892E982F872F13
:1009A000762F652F542F432F322F2227B85031F73F
:1009B000BF9127C01B2EBF91BB27220F331F441F9F
:1009C000551F661F771F881F991F881C991CEE1FD3
:1009D000FF1FCC1FDD1FAA1FBB1F8A149B04EC0541
:1009E000FD05CE05DF05A007B10748F08A189B0872
:1009F000EC09FD09CE09DF09A00BB10B21601A94A7
:100A0000E1F62EF49401AF01BE01CD01000C089572
:100A10000024A7FD00942A17300540055005600505
:100A200070058005900508955058BB27AA270E949D
:100A30002C050C944B060E943D0638F00E9444069B
:100A400020F039F49F3F19F426F40C942A060EF492
:100A5000E095E7FB0C942406E92F0E945C0658F30E
:100A6000BA17620773078407950720F079F4A6F593
:100A70000C947E060EF4E0950B2EBA2FA02D0B01E0
:100A8000B90190010C01CA01A0011124FF27591BD3
:100A900099F0593F50F4503E68F11A16F040A22FD9
:100AA000232F342F4427585FF3CF4695379527954A
:100AB000A795F0405395C9F77EF41F16BA0B620B49
:100AC000730B840BBAF09150A1F0FF0FBB1F661F90
:100AD000771F881FC2F70EC0BA0F621F731F841FD3
:100AE00048F4879577956795B795F7959E3F08F0F9
:100AF000B0CF9395880F08F09927EE0F97958795BB
:100B000008950E94000608F481E00895BEE304D031
:100B100008F490E80895BFE322273327A9010E9433
:100B2000640660F19F5748F1B91740F1BFE3B91B64
:100B30009927B8503AF4660F771F881F991FB3950D
:100B4000D2F316C0B8504AF0232F342F452F562F1A
:100B5000672F782F8827B850BAF7B85F49F0869585
:100B6000779567955795479537952795BA95B9F72E
:100B700016F40E942D0688940895889460E070E031
:100B8000CB010895E894F92F96EBFF2381F012161C
:100B900013061406440B9395F695879577956795FC
:100BA00057954040FF23B9F71BC099270895882324
:100BB00051F49850D2F7872B762F652F542F432F5F
:100BC000322F20E0B1F3121613061406440B8823CB
:100BD0003AF09A95440F551F661F771F881FCAF772
:100BE00055234AF4440F551F11F460FF04C06F5F92
:100BF0007F4F8F4F9F4F880F9695879597F9089550
:100C0000990F0008550FAA0BE0E8FEEF161617061D
:100C1000E807F907C0F012161306E407F50798F085
:100C2000621B730B840B950B39F40A2661F0232B9E
:100C3000242B252B21F408950A2609F4A140A6951A
:100C40008FEF811D811D089597F99F6780E870E0FF
:100C500060E008959FEF80EC0895909580957095E1
:100C6000609550954095309521953F4F4F4F5F4F80
:100C70006F4F7F4F8F4F9F4F089500240A94161691
:100C8000170618060906089500240A94121613067A
:100C9000140605060895092E0394000C11F4882308
:100CA00052F0BB0F40F4BF2B11F460FF04C06F5F24
:100CB0007F4F8F4F9F4F089557FD9058440F551FFA
:100CC00059F05F3F71F04795880F97FB991F61F0CE
:100CD0009F3F79F087950895121613061406551F45
:100CE000F2CF4695F1DF08C0161617061806991FB1
:100CF000F1CF86957105610508940895E894BB27A6
:100D000066277727CB0197F908950E94000608F41B
:100D10008FEF08950E949D060C944B060E943D069D
:100D200038F00E94440620F0952311F00C9424061C
:100D30000C942A0611240C947F060E945C0670F322
:100D4000959FC1F3950F50E0551F629FF001729F70
:100D5000BB27F00DB11D639FAA27F00DB11DAA1F7F
:100D6000649F6627B00DA11D661F829F2227B00DCC
:100D7000A11D621F739FB00DA11D621F839FA00D57
:100D8000611D221F749F3327A00D611D231F849FA7
:100D9000600D211D822F762F6A2F11249F575040FE
:100DA0009AF0F1F088234AF0EE0FFF1FBB1F661F79
:100DB000771F881F91505040A9F79E3F510580F042
:100DC0000C9424060C947F065F3FE4F3983ED4F322
:100DD000869577956795B795F795E7959F5FC1F7E6
:100DE000FE2B880F911D9695879597F90895F89495
:020DF000FFCF33
:100DF2000405060703020100534C524930303030DB
:100E0200303030303030303027522720466F722059
:100E1200526967687400274C2720466F72204C6520
:100E220066740027532720546F2053746F70002775
:100E3200492720544F20696E7665727400596F7588
:100E4200722043686F696365210053746F70706923
:100E52006E6700526F74617465205269676874002E
:100E6200526F74617465204C656674004D6F746FC7
:0E0E720072204E6F7420576F726B696E6700AE
:00000001FF
