:100000000C942A000C9434000C9434000C943400AA
:100010000C9434000C9434000C9434000C94340090
:100020000C9434000C9434000C9434000C94340080
:100030000C9434000C9434000C9434000C94340070
:100040000C9434000C9434000C9434000C94340060
:100050000C94340011241FBECFE5D8E0DEBFCDBF25
:100060000E9478010C94AE010C940000411134C040
:100070008230E1F068F481110EC081E090E001C0AF
:10008000880F6A95EAF780959AB389238ABB089509
:100090008330B9F0089581E090E001C0880F6A953F
:1000A000EAF7809597B3892387BB089581E090E0B4
:1000B00001C0880F6A95EAF7809594B3892384BBC1
:1000C000089581E090E001C0880F6A95EAF7809575
:1000D00091B3892381BB08954130E9F78230C1F0A3
:1000E00058F481110CC021E030E001C0220F6A9564
:1000F000EAF78AB3822BCACF833099F0089521E0C2
:1001000030E001C0220F6A95EAF787B3822BCCCF8B
:1001100021E030E001C0220F6A95EAF784B3822B18
:10012000CECF21E030E001C0220F6A95EAF781B31B
:10013000822BD0CF413081F58230D1F060F4811133
:100140000DC021E030E001C0220F6A95EAF78BB3C1
:10015000822B8BBB08958330A9F0089521E030E015
:1001600001C0220F6A95EAF788B3822B88BB0895F5
:1001700021E030E001C0220F6A95EAF785B3822BB7
:1001800085BB089521E030E001C0220F6A95EAF7AF
:1001900082B3822B82BB08954111FDCF8230D1F012
:1001A00060F481110DC081E090E001C0880F6A9574
:1001B000EAF780959BB38923CCCF8330A9F00895CB
:1001C00081E090E001C0880F6A95EAF7809598B3C6
:1001D0008923CCCF81E090E001C0880F6A95EAF7CF
:1001E000809595B38923CCCF81E090E001C0880F42
:1001F0006A95EAF7809592B38923CCCFFA018230D1
:1002000091F060F481110DC089B390E002C0959522
:1002100087956A95E2F7817080830895833029F08D
:10022000089586B3F2CF83B3F0CF80B3EECF6111E0
:1002300010C0823051F020F4811105C01ABA08951F
:10024000833029F0089517BA089514BA089511BAA1
:100250000895613099F4823061F028F4811106C06C
:100260008FEF8ABB0895833039F008958FEF87BBF5
:1002700008958FEF84BB08958FEF81BB089582307E
:1002800051F020F4811105C06ABB0895833029F034
:10029000089567BB089564BB089561BB08958230DB
:1002A00051F020F4811105C06BBB0895833029F013
:1002B000089568BB089565BB089562BB0895FB016E
:1002C000823059F028F4811106C089B380830895E3
:1002D000833029F0089586B3F9CF83B3F7CF80B385
:1002E000F5CF549A539A08955D9BFECF8CB908952B
:1002F0000F92CDB7DEB70E94710140E060E080E070
:100300000E94360041E060E080E00E949A0041E0F7
:1003100061E083E00E94360081E08983AE014F5F97
:100320005F4F60E080E00E94FE008981811114C06F
:100330008FE39CE90197F1F700C00000AE014F5F29
:100340005F4F60E080E00E94FE0089818111E6CF6E
:1003500089E40E947401E2CF83E5FBCFF894FFCFDC
:00000001FF
