:100000000C942A000C943F000C943F000C943F0089
:100010000C943F000C943F000C943F000C943F0064
:100020000C943F000C943F000C943F000C943F0054
:100030000C943F000C943F000C943F000C943F0044
:100040000C943F000C943F000C943F000C943F0034
:100050000C943F0011241FBECFE5D8E0DEBFCDBF1A
:1000600016E0A0E6B0E0E2E3FFE002C005900D92EA
:10007000A63AB107D9F70E94C0060C9497070C94D2
:100080000000411134C08230E1F068F481110EC0EB
:1000900081E090E001C0880F6A95EAF780959AB3F5
:1000A00089238ABB08958330B9F0089581E090E0F8
:1000B00001C0880F6A95EAF7809597B3892387BBBB
:1000C000089581E090E001C0880F6A95EAF7809575
:1000D00094B3892384BB089581E090E001C0880F28
:1000E0006A95EAF7809591B3892381BB08954130E1
:1000F000E9F78230C1F058F481110CC021E030E002
:1001000001C0220F6A95EAF78AB3822BCACF8330E7
:1001100099F0089521E030E001C0220F6A95EAF7D6
:1001200087B3822BCCCF21E030E001C0220F6A954B
:10013000EAF784B3822BCECF21E030E001C0220F5A
:100140006A95EAF781B3822BD0CF413081F58230B6
:10015000D1F060F481110DC021E030E001C0220F28
:100160006A95EAF78BB3822B8BBB08958330A9F095
:10017000089521E030E001C0220F6A95EAF788B3C4
:10018000822B88BB089521E030E001C0220F6A95E0
:10019000EAF785B3822B85BB089521E030E001C0EA
:1001A000220F6A95EAF782B3822B82BB0895411130
:1001B000FDCF8230D1F060F481110DC081E090E07C
:1001C00001C0880F6A95EAF780959BB38923CCCF4D
:1001D0008330A9F0089581E090E001C0880F6A950E
:1001E000EAF7809598B38923CCCF81E090E001C0F5
:1001F000880F6A95EAF7809595B38923CCCF81E083
:1002000090E001C0880F6A95EAF7809592B3892340
:10021000CCCFFA01823091F060F481110DC089B326
:1002200090E002C0959587956A95E2F7817080838A
:100230000895833029F0089586B3F2CF83B3F0CFC9
:1002400080B3EECF611110C0823051F020F48111E3
:1002500005C01ABA0895833029F0089517BA089591
:1002600014BA089511BA0895613099F4823061F09A
:1002700028F4811106C08FEF8ABB0895833039F0CE
:1002800008958FEF87BB08958FEF84BB08958FEF9C
:1002900081BB0895823051F020F4811105C06ABB02
:1002A0000895833029F0089567BB089564BB0895CD
:1002B00061BB0895823051F020F4811105C06BBB01
:1002C0000895833029F0089568BB089565BB0895AB
:1002D00062BB0895FB01823059F028F4811106C0F9
:1002E00089B380830895833029F0089586B3F9CFC8
:1002F00083B3F7CF80B3F5CF1F93CF93DF93182F3E
:10030000EB0140E06A8989890E94A50040E06C8980
:100310008B890E94A50041E06E898D890E94A5000D
:10032000412F41706A8189810E94A50011FB4427F9
:1003300040F96C818B810E94A50012FB442740F993
:100340006E818D810E94A50013FB442740F96885CA
:100350008F810E94A50014FB442740F96A85898596
:100360000E94A50015FB442740F96C858B850E94EF
:10037000A50016FB442740F96E858D850E94A500D7
:10038000412F441F4427441F68898F850E94A50080
:1003900040E06E898D89DF91CF911F910C94A5006B
:1003A0001F93CF93DF93162FD42FC52F642F752F54
:1003B00088540E947C016D2F7C2F80E4810FDF9197
:1003C000CF911F910C947C011F93CF93DF93182F33
:1003D000EB0141E06A8989890E94A50040E06C89AF
:1003E0008B890E94A50041E06E898D890E94A5003D
:1003F000412F41706A8189810E94A50011FB442729
:1004000040F96C818B810E94A50012FB442740F9C2
:100410006E818D810E94A50013FB442740F96885F9
:100420008F810E94A50014FB442740F96A858985C5
:100430000E94A50015FB442740F96C858B850E941E
:10044000A50016FB442740F96E858D850E94A50006
:10045000412F441F4427441F68898F850E94A500AF
:1004600040E06E898D89DF91CF911F910C94A5009A
:10047000803418F480540C947C010895803418F46E
:10048000805C0C947C0108950F931F93CF93DF93AE
:10049000082F162FEA016A8D898D1034F0F440E0A0
:1004A0000E94A50041E0688D8F890E94A500BE01D1
:1004B000812F0E943E02BE01802F0E94E40140E095
:1004C0006A8D898D0E94A50040E0688D8F89DF913B
:1004D000CF911F910F910C94A50041E00E94A500BF
:1004E00040E0688D8F890E94A500BE0180EC810FDD
:1004F000E0CF883018F488540C947C01089588303B
:1005000020F4603410F40C94D00108951F93CF931D
:10051000DF93C62F142FD52F982F962B903470F47D
:10052000642F752F80540E947C01612F7D2F80E401
:100530008C0FDF91CF911F910C947C01DF91CF91B3
:100540001F9108950F931F93CF93DF93EC0140E029
:100550006A8D898D0E94A50040E0688D8F890E9478
:10056000A50000E010E0AE01612F802F0E947F0205
:10057000BE0180E00E94E4011F5F1034A1F70F5F0D
:10058000083081F7AE0160E080E0DF91CF911F91EC
:100590000F910C94D001CF93DF93EC0141E06A817D
:1005A00089810E94410041E06C818B810E94410061
:1005B00041E06E818D810E94410041E068858F811C
:1005C0000E94410041E06A8589850E94410041E026
:1005D0006C858B850E94410041E06E858D850E946F
:1005E000410041E068898F850E94410041E06A89AD
:1005F00089890E94410041E06C898B890E944100F9
:1006000041E06E898D890E94410041E0688D8F89AB
:100610000E94410041E06A8D898D0E94410040E0C6
:100620006C8D8B8D0E94A5008FEC97E00197F1F700
:1006300000C0000041E06C8D8B8D0E94A5008FEC06
:1006400097E00197F1F700C00000BE018EE30E9421
:100650007C01BE018FE30E947C01BE018FE30E94FA
:100660007C01CE01DF91CF910C94A202BF92CF9278
:10067000DF92EF92FF920F931F93CF93DF93082F98
:10068000E90120E8E22E653641F081E0653409F0A9
:1006900080E0E82EE794EE24E794C42ED12C00529B
:1006A00087E0089F80011124005A1F4F80ECB82E6C
:1006B000B40E97ECF92EF40E6A8D898D90E4C9166C
:1006C000D10464F540E00E94A50041E0688D8F8967
:1006D0000E94A500BE018C2D0E943E02F80181916E
:1006E0008F01BE018E290E94E401FFEFCF1ADF0ABD
:1006F000B394BF10E1CF40E0688D8F890E94A500C0
:1007000040E06A8D898DDF91CF911F910F91FF900D
:10071000EF90DF90CF90BF900C94A50041E00E9435
:10072000A50040E0688D8F890E94A500BE018B2D39
:10073000D3CFCF92DF92EF92FF920F931F93CF937D
:10074000DF93C62F6A01D22FA8010E94860276018C
:10075000F70181917F01811109C0DF91CF911F9134
:100760000F91FF90EF90DF90CF90089598014C2F5C
:100770006D2F0E943603C95FEBCFCF92DF92EF92CD
:10078000FF920F931F93CF93DF93C62F6A01D22F4F
:10079000A8010E947F027601F70181917F018111FA
:1007A00009C0DF91CF911F910F91FF90EF90DF90E3
:1007B000CF90089598014C2F6D2F0E943603C95F8A
:1007C000EBCF1F93CF93DF93162FD72F462F572FA3
:1007D00060E00E947F02C0E0212F3D2F4C2F64E695
:1007E0008FE50E943603C95FCC38B1F7DF91CF9116
:1007F0001F910895FF920F931F93CF93DF93F82ECD
:10080000162FD72F07E0C1E0412F5D2F6F2D8C2FC2
:100810000E947F02212F3D2F402F64E68CE70E942B
:100820003603CF5F095FC83079F7DF91CF911F9111
:100830000F91FF900895EF92FF920F931F93CF9324
:10084000DF93D42FC52F60E084E00E94D00107E041
:1008500010E0EE24E394F12CC701002E01C0880FB4
:100860000A94EAF76D2F7C2F80680E94E401015002
:10087000110990F700E010E0EE24E394F12CC70199
:10088000002E01C0880F0A94EAF76D2F7C2F806834
:100890000E94E4010F5F1F4F0830110581F74D2FB3
:1008A0005C2F60E184E00E94D00118E06D2F7C2F66
:1008B00080E80E94E40111501111F8CF18E06D2F6B
:1008C0007C2F80E80E94E40111501111F8CF4D2FC8
:1008D0005C2F60E384E00E94D00118E06D2F7C2F34
:1008E00080E80E94E40111501111F8CF18E06D2F3B
:1008F0007C2F80E80E94E40111501111F8CF4D2F98
:100900005C2F60E185E00E94D00100E010E0FF2450
:10091000F3946D2F7C2F8F2D002E01C0880F0A9429
:10092000EAF70E94E4010F5F1F4F0830110589F7B5
:1009300007E010E0FF24F3946D2F7C2F8F2D002E05
:1009400001C0880F0A94EAF70E94E40101501109DE
:1009500098F74D2F5C2F60E284E00E94D00107E001
:1009600010E0EE24E394F12CC701002E01C0880FA3
:100970000A94EAF76D2F7C2F80680E94E4010150F1
:10098000110990F700E010E0EE24E394F12CC70188
:10099000002E01C0880F0A94EAF76D2F7C2F806823
:1009A0000E94E4010F5F1F4F0830110581F74D2FA2
:1009B0005C2F60E385E00E94D00100E010E0FF249E
:1009C000F3946D2F7C2F8F2D002E01C0880F0A9479
:1009D000EAF70E94E4010F5F1F4F0830110589F705
:1009E00007E010E0FF24F3946D2F7C2F8F2D002E55
:1009F00001C0880F0A94EAF70E94E401015011092E
:100A000098F7DF91CF911F910F91FF90EF9008958C
:100A1000DF92EF92FF920F931F93CF93DF930F928A
:100A2000CDB7DEB7E82EF62E8A0167FD03C027E0BA
:100A3000281750F48F2D0F90DF91CF911F910F91B8
:100A4000FF90EF90DF900895FA01628D818DFFE3B2
:100A5000FF1508F417C140E00E94A50041E0F8012D
:100A6000608D87890E94A500A8016F2D8E2D0E94A0
:100A70007F0240E0F801628181810E94410040E0F4
:100A8000F801648183810E94410040E0F8016681A1
:100A900085810E94410040E0F801608587810E94C5
:100AA000410040E0F801628581850E94410040E0FC
:100AB000F801648583850E94410040E0F801668565
:100AC00085850E94410040E0F801608987850E9489
:100AD000410041E0F801628981890E94A50041E05E
:100AE000F801648983890E94A500198241E0F80118
:100AF000668985890E94A5008FE99FE00197F1F73B
:100B000000C0000040E0F801668985890E94A500C8
:100B100041E0F801668985890E94A5008FE99FE080
:100B20000197F1F700C00000AE014F5F5F4FF80181
:100B3000628181810E940901D980AE014F5F5F4FC0
:100B4000F801648183810E940901E980F12CEE0C97
:100B5000FF1CAE014F5F5F4FF801668185810E94E7
:100B600009018981F4E08F9FC0011124FE2CF82A2D
:100B7000FD28AE014F5F5F4FF801608587810E94BD
:100B800009018981F8E08F9FC0011124F82AAE0184
:100B90004F5F5F4FF801628581850E94090189815D
:100BA000F0E18F9FC0011124F82AAE014F5F5F4F23
:100BB000F801648583850E9409018981F0E28F9F95
:100BC000C0011124F82AAE014F5F5F4FF80166851E
:100BD00085850E9409018981F0E48F9FC00111245D
:100BE000F82AAE014F5F5F4FF801608987850E9448
:100BF00009018981F0E88F9FC0011124F82A40E0A3
:100C0000F801668985890E94A50041E0F8016281AA
:100C100081810E94410041E0F801648183810E944A
:100C2000410041E0F801668185810E94410041E078
:100C3000F801608587810E94410041E0F8016285EA
:100C400081850E94410041E0F801648583850E940E
:100C5000410041E0F801668585850E94410041E040
:100C6000F801608987850E94410040E0F801628DAB
:100C7000818D0E94A50040E0F801608D87890E9467
:100C8000A500D8CE41E00E94A50040E0F801608DAB
:100C900087890E94A50060EC6F0DA801E7CE2F9216
:100CA0003F924F925F926F927F928F929F92AF92FC
:100CB000BF92CF92DF92EF92FF920F931F93CF9349
:100CC000DF9300D000D0CDB7DEB729013A014B0148
:100CD0008C839B830983EA821601A0E00E948B0724
:100CE000C1F1EAE0AE2EB12CC12CD12CE12CF12CBB
:100CF00000E010E00E942E076101EA8009810E9455
:100D00004F06C12CD12CE12C00E09201A301B401CB
:100D10008C819B810E942C07822F91014A816981DD
:100D2000805D0F900F900F900F90DF91CF911F91EA
:100D30000F91FF90EF90DF90CF90BF90AF909F907A
:100D40008F907F906F905F904F903F902F900C947A
:100D500036030F900F900F900F90DF91CF911F915E
:100D60000F91FF90EF90DF90CF90BF90AF909F904A
:100D70008F907F906F905F904F903F902F9008954D
:100D8000CDB7DEB76D970FB6F894DEBF0FBECDBFFF
:100D90008DE1E0E8F6E08E010F5F1F4FD801019072
:100DA0000D928A95E1F7C8010E94CB02B02EF12E78
:100DB0000B2D1F2D20E24DE956E060E080E00E94FF
:100DC000BD032FEF83ED90E3215080409040E1F789
:100DD00000C0000010E04B2D5F2D612F80E00E94CD
:100DE0000805082F4B2D5F2D612F81E00E947F02A7
:100DF0004B2D5F2D612F802F0E9444021F5F103406
:100E000051F72FEF8DE399E4215080409040E1F7B6
:100E100000C000004B2D5F2D60E085E00E947F0246
:100E2000CB2CDF2CE12C08E721E030E040E050E063
:100E300060E070E080E090E00E944F062FEF8DE3CD
:100E400099E4215080409040E1F700C000008B2DD4
:100E50009F2D0E94A202ACCF689401C0E8948F92AB
:100E60009F92CF93DF930E943A07DF91CF919F909B
:100E70008F90089588249924F401E401B0E49F93AD
:100E8000AA279A158B049C04ED05FE05CF05D00713
:100E9000A10798F4AD2FDC2FCF2FFE2FE92D982C32
:100EA000892E982F872F762F652F542F432F322F7F
:100EB0002227B85031F7BF9127C01B2EBF91BB2707
:100EC000220F331F441F551F661F771F881F991F4E
:100ED000881C991CEE1FFF1FCC1FDD1FAA1FBB1F04
:100EE0008A149B04EC05FD05CE05DF05A007B107BC
:100EF00048F08A189B08EC09FD09CE09DF09A00B10
:100F0000B10B21601A94E1F62EF49401AF01BE01F9
:100F1000CD01000C08950024A7FD00942A17300588
:100F20004005500560057005800590050895F8940A
:020F3000FFCFF1
:100F3200000000000000000000005F000000000050
:100F4200030003000014147F147F1414042A2A7F60
:100F52002A2A1043231008046261304A452A1028C5
:100F6200400000040300000000003E4100000000B9
:100F72000000413E000000000A070A0000000808C5
:100F82003E08080000004030000000000008080889
:100F92000000000000400000000040300806010090
:100FA2003E61514945433E0044427F404000426118
:100FB2005149494542224149494949361814127F4B
:100FC2001010004F4949494949313E494949494967
:100FD200324121110905030036494949494936265A
:100FE20049494949493E0000001400000000004000
:100FF2003400000008141422224141141414141461
:101002001414414122221414080201015109090653
:101012003E4149555D510E7E09090909097E7F4904
:1010220049494949363E4141414141227F4141417D
:1010320041221C7F4949494949497F09090909094E
:10104200093E4141494949327F08080808087F00A2
:1010520041417F414100000020403F00007F0814D1
:10106200142222417F4040404040407F0204080455
:10107200027F7F02040810207F3E41414141413EF0
:101082007F0909090909061E212129313E407F09EC
:101092001929460000264949494949320101017F7F
:1010A2000101013F40404040403F030C3040300CC2
:1010B200033F40403F40403F412214081422410177
:1010C2000204780402014161514945434100007F15
:1010D2004100000000010608304000000000417F8E
:1010E2000000000002010200004040404040404039
:1010F2000000000304000000205454547800007FD4
:101102004848300000003048484800000030484855
:101112007F00000038545454080000087C0A020082
:101122000000244A4A3E0000007F080870000000C8
:10113200000074000000000020403A0000007F1010
:10114200284400000000003F4000007008087008BA
:1011520008700078080870000000384444443800E1
:10116200007C12120C0000000C12127C0000000025
:101172007008080000004854542400000000083E93
:101182004800000038404078000000182040201835
:1011920000384040384040380044281028440000BD
:1011A200064848483E0000486858480000000008C9
:1011B200364100000000007F0000000000413608B8
:1011C20000000804040808040000000000000000F9
:1011D2000E11115111110A003A40407A00000038F4
:1011E2005456550800002056555678000020555494
:1011F20055780000205556547800002054555478F4
:1012020000000C1252120000003856555608000019
:10121200385554550800003855565408000000024D
:101222007802000000000472040000000000700058
:101232000000781415141514787814141514147801
:101242007C5454565554542054547838544C7E0986
:10125200097F494949003846454638000038454427
:1012620045380000384546443800003A41417A008A
:1012720000003841427800000044447D4444003874
:101282004445444544383D40404040403D403C3266
:101292002A261E01447E45414122003E51514945C4
:1012A200453E12151555151508000215551508006D
:1012B200002054565578000000007A0100000038E2
:1012C200444645380000384241780000007A090A55
:1012D2007100007E050912227D0039465656566578
:1012E20000000855563D0000304848454040203E29
:1012F200417D556D413E00040404041C004A2F1830
:10130200084C6A514A2F1828347A210000007D00C7
:10131200000000081400081400001408001408005B
:10132200550055005500552A552A552A552A2A7F17
:101332002A7F2A7F2A0000007F0000000808087F19
:101342000000007816151414147878161515151661
:1013520078781414141516783E41495555413E14B7
:101362001477007F000000007F007F0000141474D7
:10137200047C0000141417101F0000000C1233121A
:10138200000000012A7C2A010008080878000000F9
:101392000000000F0808080808080F0808080808D5
:1013A20008780808080000007F08080808080808EC
:1013B2000808080808087F080808002056555679CA
:1013C200007A15151616157800001F101714140050
:1013D200007E027A0A0A14141710171414141474D3
:1013E2000474141400007F007714141414141414D9
:1013F200141414147700771414413E2222223E4121
:1014020000121512000000001215170000007C5691
:1014120055555556547C5455545554547C54555630
:10142200545454000000000000000000487A4900B3
:101432000000004A794A000000004A784A00000889
:1014420008080F000000000000780808087F7F7F6E
:101452007F7F7F7F787878787878780000007700CF
:1014620000000000497A480000070707070707073E
:10147200384444464544387E01094949493638448E
:10148200464546443838444546444438003A454681
:101492004538003A454546464538007C20201C0028
:1014A2000000000000000000002214081422003C8A
:1014B20040404241403C3C40424142403C3C404131
:1014C2004240403C0000017A000000000D505050A4
:1014D2003D000101010101010100000002010000C3
:1014E200000808080808000000242E24000000005C
:1014F200000000000055351A28347A2102057F01C8
:101502007F00000A5555555555280008082A080835
:101512000000004050200000000002050200000010
:10152200000100010000000000080000000000129D
:101532001F100000000015150E0000000012191601
:10154200000000001C1C1C00000000000000000045
:10155200080200020102020203020402050206025C
:101562000701000101010201030104010557656C35
:06157200636F6D650000CF
:00000001FF
