:100000000C942A000C943C000C943C000C943C0092
:100010000C943C000C943C000C943C000C943C0070
:100020000C943C000C943C000C943C000C943C0060
:100030000C943C000C943C000C943C000C943C0050
:100040000C943C000C943C000C943C000C943C0040
:100050000C943C0011241FBECFE5D8E0DEBFCDBF1D
:1000600020E0A0E6B0E001C01D92A236B207E1F7A1
:100070000E949B030C9470060C940000411134C044
:100080008230E1F068F481110EC081E090E001C09F
:10009000880F6A95EAF780959AB389238ABB0895F9
:1000A0008330B9F0089581E090E001C0880F6A952F
:1000B000EAF7809597B3892387BB089581E090E0A4
:1000C00001C0880F6A95EAF7809594B3892384BBB1
:1000D000089581E090E001C0880F6A95EAF7809565
:1000E00091B3892381BB08954130E9F78230C1F093
:1000F00058F481110CC021E030E001C0220F6A9554
:10010000EAF78AB3822BCACF833099F0089521E0B1
:1001100030E001C0220F6A95EAF787B3822BCCCF7B
:1001200021E030E001C0220F6A95EAF784B3822B08
:10013000CECF21E030E001C0220F6A95EAF781B30B
:10014000822BD0CF413081F58230D1F060F4811123
:100150000DC021E030E001C0220F6A95EAF78BB3B1
:10016000822B8BBB08958330A9F0089521E030E005
:1001700001C0220F6A95EAF788B3822B88BB0895E5
:1001800021E030E001C0220F6A95EAF785B3822BA7
:1001900085BB089521E030E001C0220F6A95EAF79F
:1001A00082B3822B82BB08954111FDCF8230D1F002
:1001B00060F481110DC081E090E001C0880F6A9564
:1001C000EAF780959BB38923CCCF8330A9F00895BB
:1001D00081E090E001C0880F6A95EAF7809598B3B6
:1001E0008923CCCF81E090E001C0880F6A95EAF7BF
:1001F000809595B38923CCCF81E090E001C0880F32
:100200006A95EAF7809592B38923CCCFFA018230C0
:1002100091F060F481110DC089B390E002C0959512
:1002200087956A95E2F7817080830895833029F07D
:10023000089586B3F2CF83B3F0CF80B3EECF6111D0
:1002400010C0823051F020F4811105C01ABA08950F
:10025000833029F0089517BA089514BA089511BA91
:100260000895613099F4823061F028F4811106C05C
:100270008FEF8ABB0895833039F008958FEF87BBE5
:1002800008958FEF84BB08958FEF81BB089582306E
:1002900051F020F4811105C06ABB0895833029F024
:1002A000089567BB089564BB089561BB08958230CB
:1002B00051F020F4811105C06BBB0895833029F003
:1002C000089568BB089565BB089562BB0895FB015E
:1002D000823059F028F4811106C089B380830895D3
:1002E000833029F0089586B3F9CF83B3F7CF80B375
:1002F000F5CFCF93C82F41E060E081E00E94A200DB
:1003000040E061E081E00E94A2006C2F82E00E9448
:10031000570141E062E081E00E94A2008FE697E190
:100320000197F1F700C0000040E062E081E0CF916A
:100330000C94A200CF93C82F40E060E081E00E94BF
:10034000A20040E061E081E00E94A2006C2F82E008
:100350000E94570141E062E081E00E94A2008FE626
:1003600097E10197F1F700C0000040E062E081E012
:10037000CF910C94A20061E082E00E941F0141E055
:1003800060E081E00E943E0041E061E081E00E9487
:100390003E0041E062E081E00E943E002FEF89EFE5
:1003A00090E0215080409040E1F700C000008CE3D5
:1003B0000E949A018CE00E949A0181E00C949A01BB
:1003C000CF93DF93EC018991811103C0DF91CF912D
:1003D00008950E947901F7CF813009F4605C80E8CC
:1003E000860F0C949A0181E00C949A010F931F934D
:1003F000CF93DF938C01862F880F880F880F805C46
:100400000E949A01E801085F1F4F89910E947901BB
:10041000C017D107D1F780E8DF91CF911F910F91DD
:100420000C949A01CF93C82F862F642F0E94EC0161
:100430008C2FCF910C9479014F925F926F927F92A3
:100440008F929F92AF92BF92CF92DF92EF92FF92E4
:100450000F931F93CF93DF9329013A014B01D82FBC
:10046000C92FA0E00E94440441F1EAE0AE2EB12C75
:10047000C12CD12CE12CF12C00E010E00E94E7030C
:100480000E941C029201A301B4018D2F9C2F0E9497
:10049000E50380E3820FDF91CF911F910F91FF90D1
:1004A000EF90DF90CF90BF90AF909F908F907F9014
:1004B0006F905F904F900C947901DF91CF911F91D5
:1004C0000F91FF90EF90DF90CF90BF90AF909F90F3
:1004D0008F907F906F905F904F9008950F931F9330
:1004E000CF93DF9300D000D000D0CDB7DEB76D83BF
:1004F0007E83182F092F8D8189838E818A831B83A8
:100500000C8369817A818B819C810E94C7040E943F
:100510003B059B01AC0169817A818B819C810E94A2
:10052000500420E030E040E251E469837A838B8319
:100530009C8369817A818B819C810E9403066D83F3
:100540007E83182F092F69837A838B839C8369812B
:100550007A818B819C810E94C704E22FA0E00E94D7
:10056000440429F080E38E0F0E947901C4CF0F90DC
:100570000F900F900F900F900F90DF91CF911F91E0
:100580000F910895CF92DF92EF92FF920F931F93F6
:10059000CF93DF93CDB7DEB729970FB6F894DEBFC0
:1005A0000FBECDBF462F572FBC0149835A836B83A3
:1005B0007C8320E030E0A90169817A818B819C8174
:1005C0000E94BD04811103C080E30E94790120E0F4
:1005D00030E0A90169817A818B819C810E94BD04F0
:1005E00087FF4CC08DE20E94790189819A81AB819D
:1005F000BC81B05889839A83AB83BC83BC01CD0195
:100600000E94C70469017A018B0189879D83A0E05C
:100610000E94440419F480E30E9479019601A70125
:10062000B80189859D810E941C029601A701B8012D
:1006300089859D810E943B059B01AC0169817A817E
:100640008B819C810E94FE0518160CF052C08EE230
:100650000E94790169817A818B819C8129960FB6EC
:10066000F894DEBF0FBECDBFDF91CF911F910F91E8
:10067000FF90EF90DF90CF900C946E0220E030E07E
:10068000A90169817A818B819C810E94FE051816DF
:1006900084F569817A818B819C810E94C7046901FC
:1006A0007A018B0189879D83A0E00E94440419F49C
:1006B00080E30E9479019601A701B80189859D8197
:1006C0000E941C029601A701B80189859D810E94A4
:1006D0003B0529813A814B815C816D837E838F83C9
:1006E00098876D817E818F8198850E94BD0487FDEA
:1006F000AECF29960FB6F894DEBF0FBECDBFDF9107
:10070000CF911F910F91FF90EF90DF90CF900895C0
:100710008DB11DB86C9A6F986D9A6B9A6A9A699AA6
:100720006E9A08958FB9779BFECF8FB108958FB1E0
:1007300008958FB9089500D000D0CDB7DEB741E05D
:1007400067E081E00E943E0041E065E081E00E94B8
:100750003E0040E066E081E00E943E0040E064E050
:1007600081E00E943E0041E064E081E00E94A2003E
:1007700061E082E00E941F010E94BB010E94880389
:100780008AE00E949203282F30E040E050E0298365
:100790003A834B835C83CA01B9010E94FE046983DA
:1007A0007A838B839C8369817A818B819C810E946F
:1007B000C2023FE748E351E0315040405040E1F78A
:1007C00000C000000E94F301DBCF689401C0E894F0
:1007D0008F929F92CF93DF930E94F303DF91CF918B
:1007E0009F908F90089588249924F401E401B0E447
:1007F0009F93AA279A158B049C04ED05FE05CF054F
:10080000D007A10798F4AD2FDC2FCF2FFE2FE92DB5
:10081000982C892E982F872F762F652F542F432FB2
:10082000322F2227B85031F7BF9127C01B2EBF911E
:10083000BB27220F331F441F551F661F771F881FBA
:10084000991F881C991CEE1FFF1FCC1FDD1FAA1FBC
:10085000BB1F8A149B04EC05FD05CE05DF05A00730
:10086000B10748F08A189B08EC09FD09CE09DF0999
:10087000A00BB10B21601A94E1F62EF49401AF01A4
:10088000BE01CD01000C08950024A7FD00942A1795
:1008900030054005500560057005800590050895F8
:1008A0005058BB27AA270E9468040C94C4050E94D4
:1008B000B60538F00E94BD0520F039F49F3F19F4C9
:1008C00026F40C94A3050EF4E095E7FB0C949D052B
:1008D000E92F0E94D50558F3BA17620773078407FA
:1008E000950720F079F4A6F50C94F7050EF4E09541
:1008F0000B2EBA2FA02D0B01B90190010C01CA01DA
:10090000A0011124FF27591B99F0593F50F4503E84
:1009100068F11A16F040A22F232F342F4427585F76
:10092000F3CF469537952795A795F0405395C9F78E
:100930007EF41F16BA0B620B730B840BBAF0915046
:10094000A1F0FF0FBB1F661F771F881FC2F70EC0E5
:10095000BA0F621F731F841F48F4879577956795B8
:10096000B795F7959E3F08F0B0CF9395880F08F0A4
:100970009927EE0F9795879508950E94790508F4B9
:1009800081E00895BEE304D008F490E80895BFE341
:1009900022273327A9010E94DD0560F19F5748F106
:1009A000B91740F1BFE3B91B9927B8503AF4660F65
:1009B000771F881F991FB395D2F316C0B8504AF01D
:1009C000232F342F452F562F672F782F8827B85085
:1009D000BAF7B85F49F0869577956795579547952B
:1009E00037952795BA95B9F716F40E94A60588940D
:1009F0000895889460E070E0CB010895E89409C000
:100A000097FB3EF490958095709561957F4F8F4F41
:100A10009F4F9923A9F0F92F96E9BB279395F69557
:100A2000879577956795B795F111F8CFFAF4BB0FD5
:100A300011F460FF1BC06F5F7F4F8F4F9F4F16C039
:100A4000882311F096E911C0772321F09EE8872FC3
:100A5000762F05C0662371F096E8862F70E060E07F
:100A60002AF09A95660F771F881FDAF7880F9695F8
:100A7000879597F90895E894F92F96EBFF2381F075
:100A8000121613061406440B9395F69587957795E1
:100A9000679557954040FF23B9F71BC099270895E4
:100AA000882351F49850D2F7872B762F652F542F37
:100AB000432F322F20E0B1F3121613061406440B15
:100AC00088233AF09A95440F551F661F771F881F99
:100AD000CAF755234AF4440F551F11F460FF04C0B0
:100AE0006F5F7F4F8F4F9F4F880F9695879597F930
:100AF0000895990F0008550FAA0BE0E8FEEF1616AF
:100B00001706E807F907C0F012161306E407F50701
:100B100098F0621B730B840B950B39F40A2661F075
:100B2000232B242B252B21F408950A2609F4A14018
:100B3000A6958FEF811D811D089597F99F6780E825
:100B400070E060E008959FEF80EC089590958095A7
:100B50007095609550954095309521953F4F4F4F3A
:100B60005F4F6F4F7F4F8F4F9F4F089500240A9420
:100B70001616170618060906089500240A94121678
:100B80001306140605060895092E0394000C11F4AB
:100B9000882352F0BB0F40F4BF2B11F460FF04C058
:100BA0006F5F7F4F8F4F9F4F089557FD9058440FB1
:100BB000551F59F05F3F71F04795880F97FB991FBC
:100BC00061F09F3F79F08795089512161306140679
:100BD000551FF2CF4695F1DF08C016161706180606
:100BE000991FF1CF86957105610508940895E894E1
:100BF000BB2766277727CB0197F908950E947905CF
:100C000008F48FEF08950E9416060C94C4050E9404
:100C1000B60538F00E94BD0520F0952311F00C9424
:100C20009D050C94A30511240C94F8050E94D5058C
:100C300070F3959FC1F3950F50E0551F629FF0012F
:100C4000729FBB27F00DB11D639FAA27F00DB11D48
:100C5000AA1F649F6627B00DA11D661F829F2227D1
:100C6000B00DA11D621F739FB00DA11D621F839F58
:100C7000A00D611D221F749F3327A00D611D231F2E
:100C8000849F600D211D822F762F6A2F11249F577C
:100C900050409AF0F1F088234AF0EE0FFF1FBB1F7F
:100CA000661F771F881F91505040A9F79E3F51053E
:100CB00080F00C949D050C94F8055F3FE4F3983E9A
:100CC000D4F3869577956795B795F795E7959F5FE8
:100CD000C1F7FE2B880F911D9695879597F908957A
:040CE000F894FFCFB6
:00000001FF
