:100000000C942A000C948B010C943C000C943C0042
:100010000C943C000C943C000C943C000C943C0070
:100020000C943C000C943C000C943C000C943C0060
:100030000C943C000C943C000C943C000C943C0050
:100040000C943C000C943C000C943C000C943C0040
:100050000C943C0011241FBECFE5D8E0DEBFCDBF1D
:1000600020E0A0E6B0E001C01D92A136B207E1F7A2
:100070000E94B7010C94CB010C940000411130C0D8
:10008000813081F028F08230B9F08330F9F00895A2
:1000900081E090E001C0880F6A95EAF780959AB3F5
:1000A000892330C081E090E001C0880F6A95EAF7AB
:1000B000809597B3892330C081E090E001C0880F1C
:1000C0006A95EAF7809594B3892330C081E090E087
:1000D00001C0880F6A95EAF7809591B3892330C0F3
:1000E000413079F5813081F028F08230B9F08330E9
:1000F000F9F0089581E090E001C0880F6A95EAF771
:100100009AB3892B8ABB089581E090E001C0880FE3
:100110006A95EAF797B3892B87BB089581E090E051
:1001200001C0880F6A95EAF794B3892B84BB0895C0
:1001300081E090E001C0880F6A95EAF791B3892BBE
:1001400081BB0895413061F5813079F028F082302B
:10015000A9F08330E1F0089581E090E001C0880FBC
:100160006A95EAF79BB3892B2EC081E090E001C02D
:10017000880F6A95EAF798B3892B30C081E090E048
:1001800001C0880F6A95EAF795B3892B32C081E0E8
:1001900090E001C0880F6A95EAF792B3892B34C0CA
:1001A000411133C0813089F028F08230C9F08330AA
:1001B00011F1089581E090E001C0880F6A95EAF797
:1001C00080959BB389238BBB089581E090E001C0AB
:1001D000880F6A95EAF7809598B3892388BB0895BC
:1001E00081E090E001C0880F6A95EAF7809595B3A9
:1001F000892385BB089581E090E001C0880F6A954E
:10020000EAF7809592B3892382BB0895FA01813081
:1002100041F028F0823039F0833039F0089589B305
:1002200005C086B303C083B301C080B390E002C0B1
:10023000959587956A95E2F781708083089561119D
:1002400010C0813041F028F0823039F0833039F02D
:1002500008951ABA089517BA089514BA089511BAEC
:100260000895613099F4813049F028F0823049F0E6
:10027000833051F008958FEF8ABB08958FEF87BBCD
:1002800008958FEF84BB08958FEF81BB089581306F
:1002900041F028F0823039F0833039F008956ABB9C
:1002A000089567BB089564BB089561BB08958130CC
:1002B00041F028F0823039F0833039F008956BBB7B
:1002C000089568BB089565BB089562BB0895FB015E
:1002D000813041F028F0823039F0833039F00895D0
:1002E00089B305C086B303C083B301C080B38083E4
:1002F000089585B78E7F85BF85B7826085BF8BB730
:1003000080648BBF08958FB780688FBF08958FB7C3
:100310008F778FBF08951F920F920FB60F921124FF
:100320002F933F934F935F936F937F938F939F93FD
:10033000AF93BF93EF93FF934091600081E0482714
:100340004093600060E083E00E94A200FF91EF9183
:10035000BF91AF919F918F917F916F915F914F91DD
:100360003F912F910F900FBE0F901F90189540E076
:1003700062E083E00E943E0041E062E083E00E9490
:10038000A20041E060E083E00E943E000E94830101
:0A0390000E947901FFCFF894FFCF1F
:00000001FF
